:020000040800F2
:10000000B84A00208D010008C938000825260008DC
:10001000C5380008C11B00080D41000800000000A1
:1000200000000000000000000000000001010008C6
:10003000971E00080000000035010008616E0008EE
:10004000A7010008A7010008A7010008A7010008F0
:10005000A7010008A7010008A7010008A7010008E0
:10006000A7010008A7010008A7010008A7010008D0
:10007000571C0008691C0008A7010008A701000818
:10008000A7010008A7010008A7010008A7010008B0
:10009000A7010008A7010008A7010008A7010008A0
:1000A000A7010008A7010008A7010008A701000890
:1000B000A7010008A7010008A7010008A701000880
:1000C000A70100084926000829260008A701000802
:1000D000A7010008A7010008A7010008A701000860
:1000E000A7010008A7010008A7010008DFF80CD04D
:1000F00000F0EAFC004800477D540008B84A0020A0
:100100001A4B19680868B0E8F00F80F309884FF0BF
:10011000000080F311884EF00D0E704700000000C3
:1001200003480068006880F3088862B600DF00BFFB
:1001300008ED00E0EFF309800C4B1A6820E9F00F9E
:10014000106008B54FF0BF0080F3118806F036FE4E
:100150004FF0000080F31188BDE808401968086876
:10016000B0E8F00F80F30988704700BF240000203A
:1001700001B44FF0BF0080F3118801BC704701B497
:100180004FF0000080F3118801BC7047064880479B
:1001900006480047FEE7FEE7FEE7FEE7FEE7FEE76C
:1001A000FEE7FEE7FEE7FEE7AD400008ED000008D1
:1001B00040EA01039B0703D009E008C9121F08C0E9
:1001C000042AFAD203E011F8013B00F8013B521E69
:1001D000F9D27047D2B201E000F8012B491EFBD2E0
:1001E00070470022F6E710B513460A460446194642
:1001F000FFF7F0FF204610BD10B5044604E00B7871
:1002000000F8013B03B1491C521EF8D2204610BD34
:10021000F0B480EA0102D40F4200B2EB410F02D2E7
:100220000246084611464A0042D0C30DDDB2C1F372
:10023000C752AD1A202D35DAC1F3160141F4000280
:1002400004B15242C5F1200602FA06F12A411044D7
:10025000B3EBD05F23D0C4B1012DA0EBC35009DCB8
:10026000F0BC4FF0004202EAC35200F50000DBB2DE
:1002700000F006BB400000F1807000EBC350A0F11D
:10028000807040EAD170490009E0490841EAC07134
:10029000A0EBC35000F50000400800EBC350F0BCD9
:1002A00000F0E5BA6142012202EB4101001BF6E7D2
:1002B000F0BC704781F00041AAE780F00040A7E75A
:1002C00080EA010210B502F00043400026D04A0047
:1002D00023D04FEA106101EB1261C0F35600C2F364
:1002E000560240F4000042F40002A0FB0220A1F1FB
:1002F0007F014FEA0040140401D000F1010050EAF0
:10030000124001D44000491EC2B20C0604EBD010CA
:10031000401C4008802A02D003E0002010BD20F0DD
:100320000100002900DA0020184310BD30B480EA33
:10033000010202F0004530F0004221F0004015D0EB
:10034000A0B1C0F3C753C2F3C754C2F31601C0F340
:100350001600E41A41F4000140F400027D34914299
:1003600001D3641C00E04900002C02DA30BC0020FC
:1003700070474FF400000023914201D3891A0343D0
:1003800040084FEA4101F7D151B1914202D14FF0FB
:10039000004105E002D24FF0010101E06FF00101E0
:1003A00003EBC450284430BC00F061BA2DE9FE4F85
:1003B000804681EA0300C00F0C46009021F0004106
:1003C00023F00045B8EB0200A94105D24046214682
:1003D00090461C460B46024623F00040104304D1D1
:1003E0004046214603B0BDE8F08F270DC7F30A0051
:1003F000C3F30A510290401A0190402866DAC3F311
:10040000130040F4801B0098924620B10023D2EBE9
:10041000030A63EB0B0B01985946C0F140025046AA
:1004200000F004FA06460D4650465946019A00F07F
:100430000CFA10EB08006141002487EA115284EAAB
:10044000E7731A433BD0009A3AB3019A012A4FEA64
:10045000075210DC001B61EB02014FF0004202EA80
:100460000752CDE90042001C41F5801132462B466F
:1004700000F06FFAB6E7001B61EB0201001C41F5CA
:10048000801300185B412018A2F5001747EB030109
:1004900040EAD570B6196D4111E06D084FEA360695
:1004A00045EAC0754FEA0752001B61EB0201001CD0
:1004B00041F5801149084FEA300000195141324698
:1004C0002B4603B0BDE8F04F00F036BA0098012289
:1004D00040000023D0EB020263EBE073009821465A
:1004E0004FEAE074B8EB000061EB0401E9E783F048
:1004F00000435BE781F0004158E72DE9FE4F81EAB8
:10050000030404F0004421F0004100944FF0000B7C
:1005100023F0004350EA010402D052EA030404D15C
:100520000020014603B0BDE8F08FC3F30A54C1F3C5
:100530000A552C44A4F2F3340194A0FB0254C1F3F5
:10054000130141F48011C3F3130343F4801301FB3F
:10055000024400FB034E840A970A44EA815447EAA6
:100560008357A4FB076802958D0A05FB07854FEAB0
:10057000932C04FB0C542705029D4FEA065847EACA
:100580001637B5EB08056EEB070C870E920E47EA9F
:10059000811742EA8312A7FB0201B6EB0B0164EB61
:1005A00000042B0D43EA0C335E1844EB1C50DA4672
:1005B0005146E7FB0201C5F313044FEA0B3343EA4C
:1005C00014534FEA0432019C43EA0603A4F10C04DD
:1005D0000294009CCDE900B400F0BBF9A2E72DE93C
:1005E000F04D81EA030404F0004B21F0004514466D
:1005F0004FF0000A23F0004150EA050220D054EAEF
:1006000001021DD0C5F30A570246C5F31303C1F317
:100610001300C1F30A5640F4801543F48013A7EB8E
:100620000608101BD64608F2FD3873EB050002D30E
:1006300008F1010801E092185B41B8F1000F03DAFC
:1006400000200146BDE8F08D00204FF480110646E1
:1006500084460EE0171B73EB050705D3121B63EBF3
:10066000050306434CEA010C49084FEA3000921892
:100670005B4150EA0107EDD152EA030012D082EA51
:10068000040083EA0501084303D100224FF0004330
:1006900008E0101BAB4102D20122002302E06FF000
:1006A000010253101AEB06004CEB085110EB0A0044
:1006B00041EB0B01BDE8F04D00F03EB9C10F80EAFF
:1006C000E0700844CA079623002100F0D9B89623A9
:1006D0000022114600F0D4B80EB5C10F80EAE070D8
:1006E0000844CA07002140F233438DE80E000A4651
:1006F0000B4600F02EF903B000BD00F0004220F0E0
:100700000040C10DC0F3160040F400007F2901DA5B
:1007100000207047962903DCC1F19601C84001E032
:1007200096398840002AF4D04042704720F00040BB
:10073000C10DC0F3160040F400007F2901DA00204B
:100740007047962903DCC1F19601C840704796397D
:100750008840704700F0004230F000400AD0C10DE0
:1007600001F56071C0F3160042EA0151C20840076A
:1007700011437047002001467047000030B5002942
:1007800004DB4FF00044404264EB0101002B04DB2A
:100790004FF00044524264EB03038B4208BF824295
:1007A00030BD000030B5002904DB4FF0004440426A
:1007B00064EB0101002B04DB4FF00044524264EB78
:1007C0000303994208BF904230BD000001F000438E
:1007D00030B421F0004150EA010206D00A0DA2F522
:1007E0006072C1F31301002A02DC30BC00207047A4
:1007F000440F44EAC104C100E01830BC00EBC25011
:1008000000F035B8002801DBC0F10040002901DB11
:10081000C1F1004181427047002801DBC0F1004076
:10082000002901DBC1F1004188427047202A04DB26
:10083000203A00FA02F1002070479140C2F12003F3
:1008400020FA03F3194390407047202A06DBCB17A8
:10085000203A41FA02F043EAE07306E041FA02F37B
:10086000D040C2F120029140084319467047002948
:10087000A8BF7047401C490008BF20F00100704726
:1008800010B4B0FA80FC00FA0CF050EA010404BF86
:1008900010BC704749B1CCF1200421FA04F411FADC
:1008A0000CF118BF012121430843A3EB0C01CB1D20
:1008B0000106000A002BBEBF002010BC704700EBF1
:1008C000C35010440029A4BF10BC7047401C49000D
:1008D00008BF20F0010010BC7047F0B4002802DC13
:1008E000F0BC00207047C0F3C751C0F3160040F4BD
:1008F0000000CA0701D14000491E3F2202EB6105FA
:10090000002211464FF4000626FA01F31344D418CE
:10091000844201D8001B1A464000491C1729F3DD08
:100920005100814202D24FF0FF3100E0002102EB82
:10093000C550F0BCFFF79BBF10B5002B08DA401C78
:1009400041F1000192185B411A4301D120F00100EE
:1009500010BD2DE9F04D92469B4611B1B1FA81F2DE
:1009600002E0B0FA80F220329046FFF75FFF0446C3
:100970000F4640EA0A0041EA0B0153465A46084333
:1009800003D120463946BDE8F08D114653EA0100F7
:1009900015D0C8F14002504600F0A8F805460E46B2
:1009A000504659464246FFF741FF084301D0012017
:1009B00000E00020054346EAE0762C4337430A98DE
:1009C0004FEA4453A0EB08004FEAD4240A304FF01A
:1009D000000244EA47544FEAD72502D500200146D9
:1009E000D1E7010510196941DDE9084500196941A0
:1009F000BDE8F04DA0E770B521F0004303430CD0F3
:100A0000C1F30A550024D5EB040564EB0403D617A3
:100A1000AD1AB34102DB0020014670BD201841EB46
:100A2000025170BD2DE9F04D00231A461B1A8A4170
:100A300003DB00200146BDE8F08DC1F30A52C1F38B
:100A4000130141F480154FF0000BD10702D10018BB
:100A50006D41521E0027044640F2FF11384601EB5B
:100A6000620A3E468046024600204FF4801100F0A4
:100A70003DF8C2197141BB1846EB0100B4EB030C01
:100A800075EB000C04D3E41A65EB000517460E461F
:100A9000241908F101006D4180463428E3DDF9197D
:100AA00046EB0600091BA84103D24FF0FF32134664
:100AB00001E0002213461BEB070046EB0A51BDE89C
:100AC000F04DFFF739BF0000064C074D06E0E06827
:100AD00040F0010394E8070098471034AC42F6D385
:100AE000FFF708FB1881000838810008202A04DB82
:100AF000203A21FA02F00021704721FA02F3D04097
:100B0000C2F12002914008431946704701B5ADF586
:100B10003A7D3021AEA8FFF764FB48219CA8FFF77F
:100B200060FB6022FE4984A8FFF742FB0020819011
:100B3000829083907E907F9080907D907C904FF407
:100B4000C87118A8FFF74DFB0321002001F02EF813
:100B500041F2883005F0BCFF0221002001F026F8A8
:100B6000002005900EE07EA800F0A6FE18AA7E994F
:100B7000059842F82010142005F0AAFF0598401CA3
:100B800080B2059005986428EDDB0321002001F078
:100B90000DF8642118A803F07BFB7C9081A800F07D
:100BA000B1FE1CE0002005900EE07EA800F084FE5F
:100BB00018AA7E99059842F82010142005F088FFA5
:100BC0000598401C80B2059005986428EDDB6421EF
:100BD00018A803F05DFB7D9081A800F093FE81983A
:100BE0000190FFF7B7FD4FF03332CE4BCDE9020154
:100BF000FFF7C4FDD6D37C997D98FFF70DFED1D3C6
:100C00000221002000F0D2FF81989C908298A2904F
:100C10008398A890022005904EE081A800F072FE13
:100C20000598FFF754FD03909C98019081980090DF
:100C30000199FFF73FFB02900399FFF777FB0490C0
:100C40009C98014603900498FFF7E2FA9C9005985F
:100C5000FFF73DFD0390A2980190829800900199C2
:100C6000FFF728FB02900399FFF760FB0490A2981E
:100C7000014603900498FFF7CBFAA2900598FFF77E
:100C800026FD0390A8980190839800900199FFF7A2
:100C900011FB02900399FFF749FB0490A8980146C5
:100CA00003900498FFF7B4FAA890052005F010FF10
:100CB0000598401C80B205900598B0F57A7FACDBB2
:100CC0000321002000F072FF81A800F01BFE1CE051
:100CD000002005900EE07EA800F0EEFD18AA7E9997
:100CE000059842F82010142005F0F2FE0598401CEB
:100CF00080B2059005986428EDDB642118A803F004
:100D0000C7FA7D9081A800F0FDFD81980190FFF762
:100D100021FD4FF03332844BCDE90201FFF742FD54
:100D2000D6D37C997D98FFF777FDD1D3022100209F
:100D300000F03CFF81989D908298A3908398A990A1
:100D4000022005904EE081A800F0DCFD0598FFF739
:100D5000BEFC03909D980190819800900199FFF747
:100D6000A9FA02900399FFF7E1FA04909D980146D1
:100D700003900498FFF74CFA9D900598FFF7A7FCA5
:100D80000390A3980190829800900199FFF792FA3E
:100D900002900399FFF7CAFA0490A39801460390C2
:100DA0000498FFF735FAA3900598FFF790FC03909D
:100DB000A9980190839800900199FFF77BFA02901F
:100DC0000399FFF7B3FA0490A99801460390049899
:100DD000FFF71EFAA990052005F07AFE0598401C41
:100DE00080B205900598B0F57A7FACDB0321002036
:100DF00000F0DCFE81A800F085FD1CE000200590DD
:100E00000EE07EA800F058FD18AA7E99059842F8D9
:100E10002010142005F05CFE0598401C80B205905F
:100E200005986428EDDB642118A803F031FA7D9061
:100E300081A800F067FD82980190FFF78BFC4FF0CE
:100E40003332384BCDE90201FFF798FCD6D37C99B9
:100E50007D98FFF7E1FCD1D30221002000F0A6FE2F
:100E600081989E908298A4908398AA9002200590E1
:100E70004EE081A800F046FD0598FFF728FC03909E
:100E80009E980190819800900199FFF713FA0290C3
:100E90000399FFF74BFA04909E980146039004983B
:100EA000FFF7B6F99E900598FFF711FC0390A49800
:100EB0000190829800900199FFF7FCF90290039944
:100EC000FFF734FA0490A498014603900498FFF7C2
:100ED0009FF9A4900598FFF7FAFB0390AA98019058
:100EE000839800900199FFF7E5F902900399FFF7C5
:100EF0001DFA0490AA98014603900498FFF788F918
:100F0000AA90052005F0E4FD0598401C80B20590EC
:100F10000598B0F57A7FACDB0321002006E00000E5
:100F2000C47F000833331F4033331FC000F03EFE40
:100F300081A800F0E7FC1CE0002005900EE07EA8F0
:100F400000F0BAFC18AA7E99059842F820101420E7
:100F500005F0BEFD0598401C80B2059005986428F8
:100F6000EDDB642118A803F093F97D9081A800F0CF
:100F7000C9FC82980190FFF7EDFB4FF03332FE4B36
:100F8000CDE90201FFF70EFCD6D37C997D98FFF7DF
:100F900043FCD1D30221002000F008FE81989F90ED
:100FA0008298A5908398AB90022005904EE081A88E
:100FB00000F0A8FC0598FFF78AFB03909F9801902A
:100FC000819800900199FFF775F902900399FFF756
:100FD000ADF904909F98014603900498FFF718F923
:100FE0009F900598FFF773FB0390A5980190829856
:100FF00000900199FFF75EF902900399FFF796F9C7
:101000000490A598014603900498FFF701F9A59074
:101010000598FFF75CFB0390AB98019083980090D4
:101020000199FFF747F902900399FFF77FF90490C0
:10103000AB98014603900498FFF7EAF8AB900520BF
:1010400005F046FD0598401C80B205900598B0F566
:101050007A7FACDB0321002000F0A8FD81A800F01E
:1010600051FC1CE0002005900EE07EA800F024FC5E
:1010700018AA7E99059842F82010142005F028FD42
:101080000598401C80B2059005986428EDDB64212A
:1010900018A803F0FDF87D9081A800F033FC839838
:1010A0000190FFF757FB4FF03332B44BCDE902010B
:1010B000FFF764FBD6D37C997D98FFF7ADFBD1D3C6
:1010C0000221002000F072FD8198A0908298A690E5
:1010D0008398AC90022005904EE081A800F012FCAD
:1010E0000598FFF7F4FA0390A0980190819800907A
:1010F0000199FFF7DFF802900399FFF717F90490C1
:10110000A098014603900498FFF782F8A0900598F4
:10111000FFF7DDFA0390A69801908298009001995C
:10112000FFF7C8F802900399FFF700F90490A6981A
:10113000014603900498FFF76BF8A6900598FFF717
:10114000C6FA0390AC980190839800900199FFF73C
:10115000B1F802900399FFF7E9F80490AC980146C2
:1011600003900498FFF754F8AC90052005F0B0FC0C
:101170000598401C80B205900598B0F57A7FACDBED
:101180000321002000F012FD81A800F0BBFB1CE051
:10119000002005900EE07EA800F08EFB18AA7E9934
:1011A000059842F82010142005F092FC0598401C88
:1011B00080B2059005986428EDDB642118A803F03F
:1011C00067F87D9081A800F09DFB83980190FFF760
:1011D000C1FA4FF03332684BCDE90201FFF7E2FA72
:1011E000D6D37C997D98FFF717FBD1D3022100203D
:1011F00000F0DCFC8198A1908298A7908398AD9034
:10120000022005904EE081A800F07CFB0598FFF7D6
:101210005EFA0390A1980190819800900199FFF7E0
:1012200049F802900399FFF781F80490A1980146CC
:1012300003900498FEF7ECFFA1900598FFF747FA9A
:101240000390A7980190829800900199FFF732F8D7
:1012500002900399FFF76AF80490A798014603905B
:101260000498FEF7D5FFA7900598FFF730FA039092
:10127000AD980190839800900199FFF71BF80290B8
:101280000399FFF753F80490AD9801460390049832
:10129000FEF7BEFFAD90052005F01AFC0598401C36
:1012A00080B205900598B0F57A7FACDB0121002073
:1012B00000F07CFC0320ADF858000420ADF85A0083
:1012C000AEA817900320ADF850000620ADF85200EC
:1012D0009CA815900420ADF848000620ADF84A00FF
:1012E00084A813900620ADF830000420ADF8320039
:1012F000602004F0BFFA0D900CA912A803F0ADFB1A
:101300000420ADF82800ADF82A00402004F0B2FA1D
:101310000B900AAA0CA912A803F0C8FA0420ADF891
:101320002000ADF82200402004F0A4FA099008A99A
:101330000AA803F09FF90B98049005F0A1FB062082
:10134000ADF818000420ADF81A00602004F092FAFD
:10135000079006AA08A90CA803F0A8FA0D98049013
:1013600005F08EFB0998049005F08AFB16AA06A9E1
:1013700014A803F09BFA03E033331FC033331F403C
:101380000798049005F07CFB0320ADF83800ADF819
:101390003A00242004F06EFA0F90179800680F9915
:1013A0000860179840680F994860179880680F99EF
:1013B0008860179800690F99C860179840690F995D
:1013C0000861179880690F9948611798006A0F990A
:1013D00088611798406A0F99C8611798806A0F99B9
:1013E00008620320ADF84000ADF84200BA981190B1
:1013F00010A90EA803F03EF90F98049005F040FBE9
:101400001798C168BA9841621798C169BA98816201
:101410001798C16ABA98C162BA9890F8600040F013
:101420000201BA9880F860100DF53B7D00BD000008
:101430002DE9F04786B0814600200090019002908F
:10144000022100F0B3FB4FF0000A18E003A800F0FF
:1014500033FA00240AE003AA52F824105DF82400AD
:10146000FEF7D6FE4DF82400601CC4B2032CF2DB5C
:10147000052005F02DFB0AF101001FFA80FABAF5EC
:10148000FA7FE3DB0121002000F090FB002411E053
:101490005DF82400FFF75EF9074600220C4BFFF7CA
:1014A0009EF80546FFF792F909F1540141F824002E
:1014B000601CC4B2032CEBDB4FF07E50C9F848002F
:1014C0000146C9F84C10C9F8501006B0BDE8F087C5
:1014D00000407F4070B58AB005464FF07E500490C2
:1014E0003A4800213A4ACDE900123A4B3A4ACDE94E
:1014F00002100121062003F039FF044621784943F8
:101500008A003649E068FEF753FE002061680860F3
:1015100061684860616888606168C8606168086186
:1015200061684861002607E008A800F0D7F9282084
:1015300005F0CEFA701C86B2642EF5DB0221002085
:1015400000F034FB002620E008A800F0C7F9BDF940
:101550002000FFF7B3F80590BDF92200FFF7AEF8C1
:101560000690BDF92400FFF7A9F8079000216068F4
:10157000CDE9000105AA04A92046636900F0FDFC3D
:101580001E2005F0A5FA701C86B2B6F57A7FDBDB6B
:1015900060680068286360684168696360688168A2
:1015A000A9636068C168E96360680169296460686B
:1015B0004169696495F8600040F0010085F86000B9
:1015C0000121002000F0F2FA0AB070BD1B1C0008D7
:1015D000C51B0008307F0008347F0008A07E00088B
:1015E0002DE9FF5F04460D469246A946DAF8000051
:1015F000FFF7B0F80022224BCDE90001FEF77DFF96
:10160000CDE90201FFF7E2F883465946D9F8000018
:10161000FEF756FE06465946D9F80400FEF750FE7E
:1016200007465946D9F80800FEF74AFE80464FF0B3
:101630007E50206086F00040606087F00040A0602F
:1016400088F00040E06026614FF07E506061C4F891
:10165000188087F00040E061276288F000406062F7
:101660004FF07E50A062E662C4F83080676386F077
:101670000040A0634FF07E50E063BDE8FF9F000094
:101680000000E03F2DE9F04F85B004460F461646B6
:10169000DDF838B0B84635464FF08040D8F8001035
:1016A000FEF70EFE01904FF08040D8F80410FEF7D0
:1016B00007FE02904FF08040D8F80810FEF700FEB9
:1016C00003904FF08040D8F80C10FEF7F9FD04901D
:1016D00003982060049880F0004060600198A0604A
:1016E000029880F00040E060029880F000402061A5
:1016F000019880F000406061049880F00040A06193
:10170000039880F00040E061019880F00040206282
:10171000029860620398A062049880F00040E06242
:101720000399A868FEF7CCFD814601992868FEF769
:10173000C7FD82464946FEF7BDFD20630499A868AF
:10174000FEF7BEFD814602992868FEF7B9FD824684
:101750004946FEF75DFD60630199A868FEF7B0FD9C
:101760000090286880F0004A50460399FEF7A8FDD3
:1017700081460099FEF79EFDA0630299A868FEF7D6
:101780009FFD0090286880F0004A50460499FEF7BB
:1017900097FD81460099FEF73BFDE0630299A8683A
:1017A000FEF78EFD0090286880F0004A50460499AC
:1017B000FEF786FD81460099FEF72AFD2064019917
:1017C000A868FEF77DFD814603992868FEF778FD3D
:1017D00082464946FEF71CFD60640499A868FEF73E
:1017E0006FFD814602992868FEF76AFD82464946E8
:1017F000FEF70EFDA0640399A868FEF761FD009056
:10180000286880F0004A50460199FEF759FD81464C
:101810000099FEF7FDFCE0640199A868FEF750FD11
:10182000814603992868FEF74BFD82464946FEF73C
:10183000EFFC20650299A868FEF742FD81460499F5
:101840002868FEF73DFD82464946FEF733FD606598
:101850000399A868FEF734FD814601992868FEF7D0
:101860002FFD82464946FEF725FDA0650499A8682C
:10187000FEF726FD814602992868FEF721FD824683
:101880004946FEF7C5FCE06505B0BDE8F08F0000F5
:1018900010B504460623A8220649322002F038FC7F
:1018A00021460448801D01F0B7FC022005F010F924
:1018B00010BD00009000002010B5044606231D2234
:1018C0000549D02002F024FC2146034801F030F9FC
:1018D000012005F0FDF810BD9000002010B5044671
:1018E0000623832206493C2002F012FC21460448CC
:1018F0000C3001F05DFD012005F0EAF810BD00009C
:101900009000002010B5044605F0A0F8204601F034
:10191000F5F905F0A7F810BD2DE9F04387B00446AE
:10192000884691461D460E9F2E460420ADF81400B1
:101930000120ADF81600102003F09CFF0690042053
:10194000ADF80C000120ADF80E0004940420ADF8B1
:101950000400ADF80600029605AA03A901A802F04A
:10196000A5FF0698006820600698406860600698A9
:101970008068A0600698C068E060069805F080F86E
:1019800007B0BDE8F08300002DE9F04790B00446B1
:101990000E4615469A46DDF860903746A846364A08
:1019A00007CA0DAB07C30320ADF82C00ADF82E001D
:1019B000242003F05FFF0C900320ADF82400ADF865
:1019C0002600242003F056FF0A9039460C9801F0B7
:1019D000C1FF09A90BA803F040F80C9805F050F8D6
:1019E0000320ADF80C000120ADF80E000C2003F030
:1019F00041FF04900320ADF81C000120ADF81E004B
:101A00000DA8089003AA07A909A802F04FFF032018
:101A1000ADF804000120ADF806000C2003F02AFF09
:101A200002900320ADF814000120ADF81600CDF8A7
:101A3000188001AA05A909A802F038FF0A9805F044
:101A40001FF804980068206004984068606004985B
:101A50008068A06002980068E06002984068206199
:101A6000029880686061049805F00AF8029805F011
:101A700007F810B0BDE8F087B47500082DE9FE4FF7
:101A800005460C464FF080412068FEF74FFC824629
:101A900002F0B6FC06464FF080412068FEF746FC97
:101AA000824603F027F807464FF080416068FEF752
:101AB0003DFC824602F0A4FC80464FF08041606805
:101AC000FEF734FC824603F015F881464FF0804162
:101AD000A068FEF72BFC824602F092FC02904FF0C9
:101AE0008041A068FEF722FC824603F003F80190D3
:101AF00049463846FEF7E4FB00900199FEF7E0FB0B
:101B0000824641463046FEF7DBFB00900299FEF725
:101B1000D7FB83465146FEF77BFB2860494630469B
:101B2000FEF7CEFB00900199FEF7CAFB82464146C4
:101B30003846FEF7C5FB00900299FEF7C1FB8346CD
:101B40005146FEF7B7FB686041463846FEF7B8FBE2
:101B500000900199FEF7B4FB824649463046FEF7F5
:101B6000AFFB00900299FEF7ABFB83465146FEF7B0
:101B70004FFBA86049463846FEF7A2FB0090029949
:101B8000FEF79EFB824641463046FEF799FB0090E9
:101B90000199FEF795FB83465146FEF78BFBE86003
:101BA000284601F074FFBDE8FE8F000010B9034A1B
:101BB000117000E000BF00BF70470000000000206F
:101BC00000BFFEE72DE9F04706460C4690469946D1
:101BD000089F254629680846FEF772FB3060696851
:101BE0000846FEF76DFB7060A9680846FEF768FBC3
:101BF000B0604FF080402968FEF762FBF0604FF064
:101C000080406968FEF75CFB30614FF08040A96856
:101C1000FEF756FB7061BDE8F0872DE9F05F0446E2
:101C200016461F46DDF828A0B046B94600202060C1
:101C300000250CE058F8251059F82500FEF740FB68
:101C400083462168FEF7E4FA2060681CC5B2062DC1
:101C5000F0DBBDE8F09F10B5202000F0DFF810B1F8
:101C6000202000F01BF810BD10B54FF4007000F0FC
:101C7000D5F858B10648007820B91C220549064815
:101C8000FEF796FA4FF4007000F008F810BD00005F
:101C90008B000020804600204446002010F0805F2A
:101CA00002D00349086001E0024948607047000023
:101CB000040402400000024021B1026842F0010227
:101CC000026004E002684FF6FE731A40026070473B
:101CD00001684FF6FE721140016000210160416011
:101CE0008160C1604B49884208D14A490839496836
:101CF00041F00F01474A083A51608AE045491431E2
:101D0000884208D143490839496841F0F001414A05
:101D1000083A51607DE03F492831884208D13D4969
:101D20000839496841F470613A4A083A516070E0F4
:101D300038493C31884208D136490839496841F46C
:101D40007041344A083A516063E032495031884268
:101D500008D130490839496841F470212D4A083AC0
:101D6000516056E02B496431884208D1294908392D
:101D7000496841F47001274A083A516049E0254911
:101D80007831884208D123490839496841F07061A7
:101D9000204A083A51603CE01F49884206D1011FA1
:101DA000096841F00F01021F116032E01A49143135
:101DB000884208D11849091F096841F0F001164A04
:101DC000121F116025E014492831884208D11249B8
:101DD000091F096841F470610F4A121F116018E071
:101DE0000D493C31884208D10B49091F096841F46B
:101DF0007041094A121F11600BE0074950318842B7
:101E000007D10549091F096841F47021024A121FD0
:101E1000116070470800024008040240014600209B
:101E2000002211F0805F02D0054B1A6801E0054BDB
:101E30001A680A4201D0012000E00020704700002B
:101E400000040240000002401AB103680B43036023
:101E500002E003688B430360704710B500220268FC
:101E600047F6F0739A430C6A8B6823430C6923434B
:101E70004C6923438C692343CC6923434C6A234335
:101E80008C6A23431A430260CB6843600B6883600B
:101E90004B68C36010BD70472DE9F0438DB0044618
:101EA0000E4617469846149D207840434FEA800915
:101EB000009543463A463146D4F820C02069E047B1
:101EC000009543463A463146D4F828C06068E0475A
:101ED0002078ADF82C002078ADF82E0020690C9009
:101EE0002078ADF824002078ADF82600E0680A904C
:101EF0002078ADF81C002078ADF81E00A06908908D
:101F00002078ADF814002078ADF81600484603F0AC
:101F1000B1FC06902078ADF80C002078ADF80E00EA
:101F2000484603F0A7FC04902078ADF80400207820
:101F3000ADF80600484603F09DFC029003A90BA8EB
:101F400002F08BFD05AA09A90BA802F0AFFC01AABB
:101F500003A905A802F0AAFC049804F091FD0698D4
:101F600004F08EFD09AA07A901A802F045FB02981A
:101F700004F086FD0DB0BDE8F0832DE9FF4FA9B058
:101F8000044617469846DDF8DC9020784FEA800A30
:101F900060784FEA800B2078404386002078617893
:101FA0004843800002906078404380000190CDF863
:101FB0000090D4F824C0606942463946369BE04719
:101FC0002078ADF87C002078ADF87E00E0682090A5
:101FD0006078ADF874002078ADF8760060691E90E6
:101FE0006078ADF86C006078ADF86E00E0691C9028
:101FF0002078ADF864006078ADF86600029803F0D0
:1020000039FC1A902078ADF85C006078ADF85E007D
:10201000029803F02FFC189019A91DA802F01DFDCD
:1020200017AA19A91FA802F041FC1A9804F028FD6C
:102030006078ADF854006078ADF85600019803F070
:1020400019FC16906078ADF84C006078ADF84E0041
:10205000019803F00FFC14906078ADF844006078AC
:10206000ADF84600019803F005FC129015AA17A9D7
:102070001DA802F01BFC13AA1BA915A802F0BCFAAC
:10208000169804F0FDFC11A913A802F0F3FA1498B5
:1020900004F0F6FC2078ADF83C006078ADF83E0026
:1020A000029803F0E7FB10900FAA11A917A802F0FD
:1020B000FDFB129804F0E4FC189804F0E1FC607851
:1020C000ADF894000120ADF89600584603F0D2FB1D
:1020D0002690CDF800902698D4F82CC04246394678
:1020E000369BE0476078ADF88C000120ADF88E009B
:1020F000584603F0BFFB24905A462A992498FEF7CD
:1021000057F86078ADF884000120ADF88600584695
:1021100003F0B0FB229021AA25A923A802F05FFCBE
:10212000249804F0ADFC269804F0AAFC2078ADF8C1
:1021300034000120ADF83600504603F09BFB0E90B2
:102140000DAA21A90FA802F0B1FB229804F098FC77
:102150002078ADF89C000120ADF89E0060682890C2
:102160002078ADF82C000120ADF82E00504603F089
:1021700081FB0C900BAA0DA927A802F03DFA52464C
:102180000C992898FEF714F80E9804F079FC0C9836
:1021900004F076FC2078ADF824002078ADF8260015
:1021A000304603F067FB0A9031460A98FEF719F8AB
:1021B000002509E04FF07E512078401C68430A9AC0
:1021C00042F82010681CC5B22078A842F2DC2078C2
:1021D000ADF81C002078ADF81E00304603F04AFB35
:1021E000089007AA1DA90FA802F060FB109804F040
:1021F00047FC2078ADF814002078ADF81600304682
:1022000003F038FB069005AA07A909A802F0E7FB2E
:102210000A9804F035FC089804F032FC2078ADF8F8
:102220000C002078ADF80E00304603F023FB04903C
:1022300003AA1FA905A802F039FB32460499209889
:10224000FDF7B6FF069804F01BFC049804F018FC98
:102250002DB0BDE8F08F00000149C8607047000054
:102260000020024030B5044604254FF4302000F031
:1022700085F80546042D17D10C48006940F002008E
:102280000A49086108464461006940F0400008615D
:102290004FF4302000F072F805460448006941F61A
:1022A000FD71084001490861284630BD0020024008
:1022B00004200B49C96811F0010F01D001200EE084
:1022C0000749C96811F0040F01D0022007E0044952
:1022D000C96811F0100F01D0032000E004207047FE
:1022E000002002400348006940F080000149086175
:1022F000704700000020024078B506460C460425D1
:1023000000200090E80200F039F80546042D24D1A1
:102310001348006940F00100114908613480E80267
:1023200000F02CF80546042D10D1B01C0090200CB4
:1023300000990880E80200F021F805460848006985
:1023400041F6FE7108400649086106E0044800694C
:1023500041F6FE71084002490861284678BD000038
:102360000020024002480349486003484860704723
:102370002301674500200240AB89EFCD00B502463E
:102380000423FFF795FF034603E0FFF791FF0346A1
:10239000521E012B01D1002AF7D102B9052318469C
:1023A00000BD2DE9F0410246002500260020002353
:1023B0000024002791F803C00CF00F0591F803C02A
:1023C0001CF0100F03D091F802C04CEA050591F8FB
:1023D00000C0BCF1000F31D0146800202BE04FF09A
:1023E000010C0CFA00F3B1F800C00CEA03069E429F
:1023F00020D183004FF00F0C0CFA03F7BC4305FA11
:1024000003FC4CEA040491F803C0BCF1280F06D188
:102410004FF0010C0CFA00FCC2F814C00AE091F86D
:1024200003C0BCF1480F05D14FF0010C0CFA00FCC1
:10243000C2F810C0401C0828D1D31460B1F800C005
:10244000BCF1FF0F34DD546800202EE000F1080CD1
:102450004FF0010808FA0CF3B1F800C00CEA0306CB
:102460009E4221D183004FF00F0C0CFA03F7BC43BE
:1024700005FA03FC4CEA040491F803C0BCF1280FF0
:1024800005D100F1080C08FA0CF8C2F8148091F894
:1024900003C0BCF1480F07D100F1080C4FF0010850
:1024A00008FA0CF8C2F81080401C0828CED35460FB
:1024B000BDE8F081F0B50A46002300240021002584
:1024C00000F00046B6F1004F02D11D4EF16901E067
:1024D0001B4E7168C0F3034583B200F44016B6F595
:1024E000401F08D121F07061154E766826F07066A5
:1024F000134F7E6012E000F48016B6F5801F06D1FF
:10250000032606FA05F4A14341F0706106E0460D8A
:10251000360103FA06F6B14341F0706122B1460D6F
:10252000360103FA06F6314300F00046B6F1004FDB
:1025300002D1034EF16101E0014E7160F0BD000077
:10254000000001400246002093680B4201D00120A8
:1025500000E0002070474161704701617047000052
:102560002DE9F04704460E464FF0000994F8290083
:1025700044F8206000251DE094F82900284494F8D0
:10258000281090FBF1F201FB120054F82080C1F1F9
:102590000A0000EB80001F4A02EBC00050F8251033
:1025A0004046FDF78DFE07464946FDF731FE814660
:1025B000681CC5B294F82800A842DDDC94F8290014
:1025C00028B994F82800401E84F8290004E094F803
:1025D0002900401E84F8290094F8291054F821009D
:1025E000FEF7B8F807460C4A0C4BFEF7C7F80ED2B8
:1025F00094F8291054F82100FEF7ACF80746064A73
:10260000074BFEF7CFF802D23046BDE8F0874846C8
:10261000FBE70000D87D0008F168E388B5F8E43EE8
:10262000B5F8E4BE00BFFEE710B50549054800F067
:102630003FF918B10249034800F0F3F810BD00005B
:10264000000400010058004010B55D4800F043F957
:1026500004465C49601A8C4239D008DC6FF4403083
:10266000201809D0012875D03F2872D184E00228B3
:1026700019D00428F9D146E053480088401C52493B
:102680000880524890F8380030B95048017800224C
:102690004B4800F0B1F905E04C4801780122484868
:1026A00000F0AAF98AE04A480088401C484908809E
:1026B00046484178424800F0A8F94448007928B9D2
:1026C00000224FF480613E4800F012F976E03F4866
:1026D0000079002810DD3D48006B01783B48006B15
:1026E000401C3A4B1863364800F08FF937480079A0
:1026F000401E3649087105E000224FF480613048E1
:1027000000F0F6F85AE033480088401C3149088050
:102710002E48C07870B90121294800F0A0F80022A5
:102720004FF40071264800F0E3F80120274981F8B2
:1027300039000CE00120254981F83800012281028E
:102740001F4800F0D5F801211D4800F07CF835E065
:1027500000E032E020480088401C1F4908801B48E8
:10276000C078012807D10021154800F039F801216F
:10277000134800F074F821E018480088401C1749FD
:1027800008800F4800F034F91049496B08700F4871
:10279000406B401C0D4948630846C078401EC87015
:1027A0000846C078012807D10021054800F018F834
:1027B0000121034800F053F800E000BF00BF10BD46
:1027C00000580040800007007E00002008460020DE
:1027D000800000208200002084000020860000206D
:1027E00021B1028842F48062028004E002884FF640
:1027F000FF331A400280704770B50246002400255E
:1028000000230020958A138B1B0445EA030626F05B
:102810007F4404EA01068E4201D1012000E000203D
:1028200070BD002221F07F42D3438382704721B1E3
:10283000028842F00102028004E002884FF6FE7333
:102840001A400280704721B1028842F480720280EF
:1028500004E002884FF6FF631A400280704721B1FE
:10286000028842F40072028004E002884FF6FF53AF
:102870001A40028070470CB50246002000230193E5
:10288000009300920B0F019321F07F41019B1BB13C
:10289000009B1433009303E0090C009B1833009352
:1028A000009B1B680B4201D0012000E000200CBD02
:1028B00030B5024600200023948801F0E06504EA68
:1028C000154321F07F41948A0C4202D00BB10120C4
:1028D00000E0002030BD10B501460020002300229A
:1028E0008B8A0A8B120443EA020424F07F4010BD55
:1028F0001AB183880B43838002E083888B438380F3
:10290000704700002DE9F04385B004460D460026CF
:10291000B1460427DFF8CC80A6884FF6C070064089
:10292000684601F009F9DDF808802F48B8FBF0F09F
:102930001FFA80F946EA0906A68020884FF6FE7144
:102940000840208000262949286888420CD8286839
:102950004000B8FBF0F087B2042F00DA04273E43B2
:1029600009F10100208427E0E888A0F53F41FF3904
:1029700006D1286800EB4000B8FBF0F087B209E010
:10298000286800EBC00101EB0010B8FBF0F087B243
:1029900047F480473805000D01D147F0010747F49F
:1029A000004006434FF4967009FB00F04FF47A7133
:1029B00090FBF1F0401C2084A683208840F00100A9
:1029C000208026884FF6F5300640A888698908439C
:1029D00006432680A88929890843208105B0BDE8DF
:1029E000F083000000127A0040420F00A086010030
:1029F0000146088AC0B2704712B141F0010102E0FD
:102A00004FF6FE73194001827047018270471CB572
:102A100000208DF8000007208DF8010018208DF8A7
:102A2000020003208DF80300A5208DF804006846FD
:102A300000F040F81CBD000070B504460D46164677
:102A400001211948FFF7FFFE00BF18491648FFF79C
:102A5000D3FE0028F9D0002221461348FFF7CCFF0F
:102A600000BF13491048FFF7C7FE0028F9D03146D0
:102A70000D48FFF7CAFF00BF0D49891C0A48FFF740
:102A8000BBFE0028F8D029780748FFF7BEFF00BF3B
:102A90000749891C0448FFF7AFFE0028F8D0012140
:102AA0000148FFF7DCFE70BD005800400100030044
:102AB000820007007CB504461A4DA078E1780843EF
:102AC00000903E222146D020FFF7B6FF1522611C60
:102AD000D020FFF7B1FF16226946D020FFF7ACFFE8
:102AE0001722211DD020FFF7A7FF00BF2800A5F166
:102AF0000105FBD10121084601F00EF801210A4829
:102B0000FFF7D8FC0121042001F006F84FF4004043
:102B1000ADF8040004208DF8070001A90348FFF771
:102B200040FC7CBDA086010000023000000801408E
:102B30002DE9FF4706460D46002417E016F814005D
:102B400002A921F8140002A810F81400000200B233
:102B500021F8140002A830F914006100491C715CCE
:102B6000084302A921F81400601CC4B2032CE5DB61
:102B7000002416E002A931F91400FDF79FFD80F052
:102B8000004A5046FDF7E6FD07460B4A0B4BFDF7A2
:102B9000B4FCCDE90001FDF719FE45F82400601CE6
:102BA000C4B2032CE6DBD5F8009068682860C5F84D
:102BB0000490BDE8FF87000075DEEFE578E4533F41
:102BC00008B50121052000F0A7FF0820ADF800009E
:102BD00010208DF8030003208DF80200694602489A
:102BE000FFF7DFFB08BD0000000801401CB5C02056
:102BF0008DF8000020208DF8010000208DF80200E3
:102C000007208DF8030000208DF804008DF80500E2
:102C100004208DF80600684600F006F81CBD00E0B0
:102C2000401E0028FCD170472DE9F8430446DFF828
:102C3000BC80207861780843A1780843E17840EAB5
:102C40000105207961790843A17940EA010600274E
:102C5000274800884FF6BF7108402549088008467C
:102C60000088032108432249088008460088402143
:102C700008431F4908802021284600F02DF9212112
:102C8000304600F029F92221384600F025F918488D
:102C900000884FF6BF710840154908800846008833
:102CA0004FF6FC7108401249088008460088402110
:102CB00008430F49088020790E49087000BF5FEA79
:102CC0000800A8F10108FAD10121042000F024FF36
:102CD0004FF40070ADF8000004208DF80300694641
:102CE0000548FFF75EFBBDE8F8830000A086010001
:102CF0000038004088000020000801402DE9FC4118
:102D00000446684600F066F8012857D12C48007840
:102D100040BBBDF90200FDF7DFFC0746294A2A4BFC
:102D2000FDF7EBFB0546FDF751FD2060BDF9000006
:102D3000FDF7D2FC0746234A234BFDF7DEFB054691
:102D4000FDF744FD6060BDF904104842FDF7C4FC86
:102D500007461C4A1C4BFDF7D0FB0546FDF736FD28
:102D6000A0602BE016480078802827D1BDF902002A
:102D7000FDF7B2FC0746154A154BFDF7BEFB0546AD
:102D8000FDF724FD2060BDF90000FDF7A5FC074616
:102D90000E4A0F4BFDF7B1FB0546FDF717FD6060CE
:102DA000BDF904104842FDF797FC0746074A084B57
:102DB000FDF7A3FB0546FDF709FDA060BDE8FC811A
:102DC0008800002075F8B53F619A833FC1500B4ED3
:102DD00012859D3F7CB505464FF400712748FFF7EB
:102DE000B1FB0646002E46D0254800884FF6BF713D
:102DF00008402349088008460088032108432049E9
:102E0000088008460088402108431D4908800622A2
:102E10006821684600F036F8194800884FF6BF71FF
:102E2000084017490880084600884FF6FC710840A2
:102E3000134908800846008840210843104908804B
:102E4000002414E06000401C1DF8000025F8140068
:102E500015F81400000200B225F8140035F914002A
:102E60001DF81410084325F81400601CC4B2032C8C
:102E7000E8DB01207CBD0020FCE7000000080140E9
:102E8000003800402DE9F04105460E4617464FF444
:102E900080611048FFF75FFB0A20FFF7C0FE46F095
:102EA000800000F0BDF8002404E000F0B3F82855DD
:102EB000601CC4B2BC42F8DB3220FFF7B0FE4FF416
:102EC00080610448FFF749FB1420FFF7A8FEBDE826
:102ED000F08100000008014070B505460C464FF433
:102EE00080610C48FFF737FB0A20FFF798FE204669
:102EF00000F096F8284600F093F83220FFF78FFE96
:102F00004FF480610348FFF728FB1420FFF787FE8A
:102F100070BD00000008014000B587B001218803A2
:102F200000F0EAFD0121082000F0F6FD012108462D
:102F300000F0F2FD01213348FFF7BCFA4FF40050D6
:102F4000ADF8040003208DF8060018208DF8070066
:102F500001A92D48FFF725FA4FF40040ADF8040011
:102F600003208DF8060018208DF8070001A92648D7
:102F7000FFF717FA4FF48060ADF8040003208DF8D6
:102F8000060010208DF8070001A92048FFF709FA74
:102F90004FF48040ADF8040004208DF8070001A92B
:102FA0001948FFF7FEF90021194800F02FFE002014
:102FB000ADF808004FF48270ADF80A000020ADF8BB
:102FC0000C00ADF80E00ADF810004FF40070ADF835
:102FD00012003020ADF814000020ADF816000720D4
:102FE000ADF8180002A90A4800F001FF01210848C5
:102FF00000F00CFE4FF480610448FFF7AEFA07B012
:1030000000BD000000023000000C0140000801403B
:103010000038004010B5FF2000F002F810BD00009D
:1030200010B5044600BF02210A4800F0D2FE002875
:10303000F9D02146074800F0D8FE00BF012105481D
:1030400000F0C7FE0028F9D0024800F0CBFEC0B265
:1030500010BD0000003800407CB50446012500206A
:1030600001900090207861780843A17808439DF88A
:10307000041008430190E0782179084361790843FE
:103080009DF8001008430090202201A9322000F092
:1030900035F8054023226946322000F02FF805401C
:1030A000E0780349087060790249087028467CBDC1
:1030B000890000208A0000207CB5044601250020FC
:1030C00001900090207861780843E17808439DF8EA
:1030D000041008430190A0789DF800100843009068
:1030E000212201A9322000F009F805402622694674
:1030F000322000F003F8054028467CBD2DE9F04160
:1031000005460E46174601212A48FFF79CFB4CF264
:10311000503400BF28492748FFF76EFB18B920003C
:10312000A4F10104F6D114B90020BDE8F081002219
:1031300029462048FFF760FC4CF2503400BF1F497D
:103140001C48FFF759FB18B92000A4F10104F6D17F
:103150000CB90020E9E739461648FFF756FC4CF257
:10316000503400BF1549891C1248FFF745FB18B9B8
:103170002000A4F10104F5D10CB90020D5E7317885
:103180000C48FFF742FC4CF2503400BF0B49891C3D
:103190000848FFF731FB18B92000A4F10104F5D16C
:1031A0000CB90020C1E701210248FFF758FB0120BC
:1031B000BBE7000000580040010003008200070048
:1031C0003EB5044601250020029001900090207831
:1031D000617808439DF8081008430290A0789DF894
:1031E000041008430190E0789DF800100843009017
:1031F000002202A93C20FFF781FF0540012201A91E
:103200003C20FFF77BFF0540022269463C20FFF788
:1032100075FF054028463EBD2DE9FE4F06460C468B
:103220005C4800780290029810F0400F10D1002501
:103230000BE016F815106800401C305C01EB002014
:1032400000B22DF81500681CC5B2032DF1DB13E0A8
:1032500000250FE016F8151009020AB26900491C92
:10326000715C5018C11700EB117109112DF8151080
:10327000681CC5B2032DEDDB4748007820B110284B
:103280002AD0302879D14FE0BDF90000FDF724FAAB
:103290008246424A424BFDF730F90746FDF796FA5F
:1032A0002060BDF90200FDF717FA82463B4A3C4B0D
:1032B000FDF723F90746FDF789FA6060BDF90400C0
:1032C000FDF70AFA0746354A354BFDF716F98246EF
:1032D000FDF77CFAA06051E0BDF90000FDF7FCF9B4
:1032E00007462E4A2F4BFDF708F98246FDF76EFA86
:1032F0002060BDF90200FDF7EFF98246274A294B0D
:10330000FDF7FBF80746FDF761FA6060BDF90400C0
:10331000FDF7E2F98246214A224BFDF7EEF8074617
:10332000FDF754FAA06029E0BDF90000FDF7D4F9DB
:1033300082461D4A1D4BFDF7E0F80746FDF746FAA9
:103340002060BDF90200FDF7C7F90746164A174B82
:10335000FDF7D3F88246FDF739FA6060BDF9040045
:10336000FDF7BAF90746104A104BFDF7C6F882463A
:10337000FDF72CFAA06001E0FFE700BF00BF206866
:1033800080F0004960682060C4F80490A068A060E4
:10339000BDE8FE8F8A0000208900002006F357C890
:1033A0005C19843F5C19943F7D3F355EBA49A43F68
:1033B0001FB5024600200CE012F810304400641CD7
:1033C000145D04EB03231BB202AC24F81030431C41
:1033D000D8B20328F0DBBDF80A305B421BB2ADF86F
:1033E0000030BDF808305B421BB2ADF80230BDF8CA
:1033F0000C305B421BB2ADF80430BDF800300B80DE
:10340000BDF802304B80BDF804308B801FBD1FB566
:1034100020208DF8080010208DF8090007208DF875
:103420000A0000208DF80B008DF80C0040208DF86C
:103430000D0000208DF804008DF805008DF80600C1
:1034400001208DF8070002A8FFF706FE01A8FFF78C
:1034500033FE14208DF8000000208DF8010040207C
:103460008DF8020000208DF803006846FFF7A8FEE3
:103470001FBD000010B504461C2202492046FCF77F
:1034800097FE10BD200100202DE9F04106460C46B4
:103490000027002507E056F825103846FCF7B8FE4F
:1034A0000746681C85B2A542F5DB2046FDF70FF9FB
:1034B000804641463846FCF739FFBDE8F081000000
:1034C0000FB58BB0109800287DD10B9880680490C0
:1034D0000B98806803900499FCF7F2FE06900B9815
:1034E000406802900B98406801900299FCF7E8FE52
:1034F00004900B98006802900B9800680190029964
:10350000FCF7DEFE03900499FCF782FE0590069915
:10351000FCF77EFE0AA9079001F006FC0B980068F4
:1035200002900A99FCF702FF0390FDF713F9CDE929
:10353000040101F00BFCCDE90601FDF747F90D99F7
:1035400048600B98806880F000400190FDF702F918
:10355000CDE904010B98406880F000400190FDF730
:10356000F9F8CDE90201DDE9042301F03FFECDE9E0
:103570000601FDF72BF90D9908600D98406803903E
:1035800001F0B8FA05900D980068019000F038FF3E
:1035900003900C98B0F904000190FDF78FF80290A9
:1035A0000399FCF78DFE04900599FCF789FE0790BE
:1035B0000D984068019001F09DFA03900C98B0F9C5
:1035C0000200019000E046E0FDF778F802900399D0
:1035D000FCF776FE05900D984068019000F010FF12
:1035E00003900C98B0F900000190FDF767F8029085
:1035F0000399FCF765FE04900599FCF709FE069017
:103600000799FCF705FE09900D980068039001F0FA
:1036100071FA05900C98B0F904000390FDF74EF88C
:1036200004900599FCF74CFE07900D9800680390F4
:1036300000F0E6FE05900C98B0F902000390FDF74B
:103640003DF804900599FCF73BFE06900799FCF7BE
:1036500031FE0890C2E00E984068039001F04AFAEB
:1036600005900E980068019000F0CAFE03900C9837
:10367000B0F904000190FDF721F802900399FCF7DE
:103680001FFE04900599FCF71BFE07900E984068FA
:10369000019001F02FFA03900C98B0F9020001900C
:1036A000FDF70CF802900399FCF70AFE05900E98BE
:1036B0004068019000F0A4FE03900C98B0F900005F
:1036C0000190FCF7FBFF02900399FCF7F9FD0490D1
:1036D0000599FCF79DFD06900799FCF799FD099067
:1036E0000E980068039001F005FA05900C98B0F967
:1036F00004000390FCF7E2FF04900599FCF7E0FD5D
:1037000007900E980068039000F07AFE05900C98E0
:10371000B0F902000390FCF7D1FF04900599FCF783
:10372000CFFD06900799FCF7C5FD08900B988068BF
:1037300004900B98806803900499FCF7C1FD0690F3
:103740000B98406802900B98406801900299FCF732
:10375000B7FD04900B98006802900B9800680190E8
:103760000299FCF7ADFD03900499FCF751FD05901B
:103770000699FCF74DFD0AA9079001F0D5FA0B98C0
:10378000006802900A99FCF7D1FD0390FCF7E2FF74
:10379000CDE9040101F0DAFACDE90601FDF716F8EA
:1037A0000D9948600B98806880F000400190FCF70C
:1037B000D1FFCDE904010B98406880F000400190F2
:1037C000FCF7C8FFCDE90201DDE9042301F00EFD9D
:1037D000CDE90601FCF7FAFF0D9908600898FCF79F
:1037E000B9FF21F0004100224FF08043CDE90601EE
:1037F000FCF7C4FF0CD200210998FDF70DF803D2A5
:1038000000210D9881602AE028490D98816026E00A
:10381000DDE90810FCF78AFD0390FCF79BFFCDE97A
:10382000040101F0D1FBCDE90601FCF7CFFF0D99B2
:10383000886000210898FCF7E5FF08D20D988068A1
:103840001B490790FCF7E4FC0D99886007E00D9890
:10385000806818490790FCF7DBFC0D9988600D988B
:1038600080680390FCF776FF134A144BCDE90401FE
:10387000FCF73DFECDE90601FCF7A8FF0D99886035
:103880000D9880680590FCF765FF00221346CDE98E
:103890000601FCF773FF07D20D988068084907906E
:1038A000FCF7B6FC0D9988600FB000BDDB0F4940F6
:1038B000DB0FC93FE4CB96404968CBB91457BD3FF5
:1038C000DB0FC94000BFFEE77047000070B5002164
:1038D00000230F22C4780CB3164C246804F4E0646F
:1038E000C4F5E064210AC1F10403CA40447804FA33
:1038F00003F184781440214309010F4C0678A15547
:10390000047804F01F050124AC4005786D114FF0D8
:10391000E02606EB8505C5F8004109E0047804F0CF
:103920001F050124AC40054D0678761145F8264068
:1039300070BD00000CED00E000E400E080E100E07C
:1039400002490143024A1160704700000000FA0575
:103950000CED00E02DE9F04F87B005460C462168DC
:103960000846FCF7ADFC074661680846FCF7A8FC72
:103970008046A1680846FCF7A3FC8146E16808463A
:10398000FCF79EFC8246D4E90001FCF799FC069006
:10399000A1682068FCF794FC0590E1682068FCF7BA
:1039A0008FFC0490D4E90101FCF78AFC0390E168E4
:1039B0006068FCF785FC0290D4E90201FCF780FC0A
:1039C000019041463846FCF723FC83464946FCF704
:1039D00071FC06465146FCF76DFC2860DDE90301E9
:1039E000FCF768FC06464FF08041FCF769FC686014
:1039F00005990298FCF70CFC06464FF08041FCF755
:103A00005FFCA860DDE90301FCF702FC06464FF00D
:103A10008041FCF755FCE86041463846FCF74AFC1B
:103A200083464946FCF7F4FB06465146FCF742FC48
:103A3000286106990198FCF73DFC06464FF080414D
:103A4000FCF73EFC686105990298FCF733FC0646DA
:103A50004FF08041FCF734FCA86106990198FCF70F
:103A6000D7FB06464FF08041FCF72AFCE86141464F
:103A70003846FCF71FFC83464946FCF71BFC06460C
:103A80005146FCF7C5FB286207B0BDE8F08F2DE971
:103A9000F0410546002600240CE055F8241055F8A6
:103AA0002400FCF70DFC07463146FCF7B1FB064647
:103AB000601CC4B2042CF0DB002408E055F824009C
:103AC0003146FCF733FC45F82400601CC4B2042CDA
:103AD000F4DBBDE8F081000029B1064A52690243D7
:103AE000044B5A6104E0034A52698243014B5A6114
:103AF000704700000010024029B1064AD269024313
:103B0000044BDA6104E0034AD2698243014BDA6173
:103B1000704700000010024029B1064A9269024332
:103B2000044B9A6104E0034A92698243014B9A6113
:103B3000704700000010024030B500210022002430
:103B400000232D4D6D6805F00C0121B1042905D02D
:103B5000082923D105E0294D056022E0274D0560A5
:103B60001FE0254D6D6805F47012234D6D6805F456
:103B70008034022505EB92421CB9214D5543056066
:103B80000BE01D4D6D6815F4003F03D01C4D5543EF
:103B9000056002E0194D5543056002E0174D0560D0
:103BA00000BF00BF144D6D6805F0F0010909154D07
:103BB0006B5C0568DD4045600F4D6D6805F4E061A4
:103BC000090A104D6B5C4568DD4085600A4D6D68E3
:103BD00005F46051C90A0B4D6B5C4568DD40C5605A
:103BE000054D6D6805F44041890B074D6B5CC56858
:103BF000B5FBF3F5056130BD0010024000127A00FC
:103C000000093D000D0000201D00002021B10288A8
:103C100042F04002028004E002884FF6BF731A406F
:103C20000280704700B591B001210803FFF774FFCF
:103C300001210420FFF770FF01210846FFF74CFF28
:103C4000C020ADF82C0003208DF82E0018208DF830
:103C50002F000BA94148FEF7A4FB3020ADF82C0043
:103C600004208DF82F000BA93C48FEF79AFB002199
:103C70003B48FFF7CBFF0020ADF83000ADF8320035
:103C8000ADF834000220ADF836000120ADF8380060
:103C90000020ADF83A001820ADF83C000020ADF847
:103CA0003E000720ADF840000CA92D4800F09FF819
:103CB0002C48FEF70DF82A480C3000902A48019055
:103CC000002002901E200390002004908020059088
:103CD000002006900790202008904FF44050099053
:103CE00000200A9069461F48FEF7B7F81D481430B7
:103CF000FDF7EEFF1A480C3000901C480190102090
:103D000002901E2003900020049080200590002047
:103D100006900790202008900002099000200A9049
:103D2000694610481430FEF798F8012203210C4828
:103D300000F046F801210A48FFF768FF0121094811
:103D4000FDF7BAFF012107481430FDF7B5FFBB208E
:103D500006494877087711B000BD0000000801400F
:103D6000003001401C000240624600204446002012
:103D700008B5012202211148FEF766F8012202214E
:103D80000E481438FEF760F80C208DF80000032070
:103D90008DF8010001208DF803006846FFF796FDBD
:103DA0000D208DF8000004208DF8010001208DF811
:103DB00003006846FFF78AFD08BD0000300002409E
:103DC0001AB183880B43838002E083888B4383800E
:103DD00070470246002013890B4201D0012000E009
:103DE000002070470146888970478181704710B56F
:103DF0000022028802F441520B884C8823438C88AD
:103E00002343CC8823430C8923434C8923438C8947
:103E10002343CC8923431A430280838B4FF2FF74E0
:103E2000234083830B8A038210BD00002DE9F04FED
:103E30008DB005460E46914669690846FCF740FA82
:103E4000079029690846FCF73BFA0690E96808469E
:103E5000FCF736FA05900699FCF7DAF983460799DC
:103E6000FCF7D6F98246FCF775FCCDE9080101F0B4
:103E70007AFD0746FCF7AAFC0B900B98FCF76AFC4E
:103E80000746454A454BFCF732FB21F0004182468C
:103E9000FCF79CFC0A900A98FCF75CFC0746404A39
:103EA000404BFCF76BFC37D2002432E009F10101F2
:103EB000614356F82100FCF74DFC0746384A3A4B5F
:103EC000FCF71BFBCDE906010A98FCF743FC07460B
:103ED0004FF03332354BFCF710FB354A354BCDE90B
:103EE0000201FCF763FA82462D4A334BFCF705FBCF
:103EF000CDE90401DDE90623FCF758FACDE9080114
:103F0000FCF764FC09F10101614346F82100601CE3
:103F1000C4B2032CCADB3BE0002437E009F1010105
:103F2000614356F82100FCF715FC07461C4A1E4B5E
:103F3000FCF7E3FACDE906010A98FCF70BFC07460B
:103F4000174A184BFCF7D3FA1C4A1D4BCDE9000168
:103F5000FCF7D3FA00221B4BCDE90201FCF726FA4D
:103F600082460F4A144BFCF7C8FACDE90401DDE99B
:103F70000623FCF71BFACDE90801FCF727FC09F141
:103F80000101614346F82100601CC4B2032CC5DB6B
:103F90000DB0BDE8F08F0000EE7C3F355E9A234007
:103FA0009A9999999999D93F9999E93F3333E33F80
:103FB0007B14AE47E17A843F9999C93FF5B8BF1D9C
:103FC000BE96B33F0000D03F10B500F001F810BD21
:103FD0000CB50020019000903248006840F4803019
:103FE0003049086000BF2F48006800F4003000909E
:103FF0000198401C0190009818B90198B0F5A06F85
:10400000F1D12848006810F4003F02D00120009050
:1040100001E0002000900098012842D12248006869
:1040200040F01000204908600846006820F00300B6
:1040300008600846006840F00200086019484068BF
:10404000184948600846406848600846406840F49F
:10405000806048600846406820F47C10486008464C
:10406000406840F4E81048600846006840F08070FE
:10407000086000BF0B48006810F0007FFAD00948C4
:10408000406820F00300074948600846406840F057
:104090000200486000BF0348406800F00C00082898
:1040A000F9D10CBD001002400020024010B51348A9
:1040B000006840F001001149086008464068104956
:1040C00008400E494860084600680E4908400B4900
:1040D00008600846006820F48020086008464068B0
:1040E00020F4FE0048604FF41F008860FFF76CFF6B
:1040F0004FF000600449086010BD0000001002404D
:104100000000FFF8FFFFF6FE08ED00E000BFFEE74D
:104110002DE9F04106460D46174698464FF400310A
:104120002C48FEF7A8FB002851D101212948FEF7B1
:1041300057FB01224FF4E0612648FEF7D9FB2648E1
:1041400006704770807832280ED03C2818D0D028CE
:1041500023D1002405E020481930005D2855601C5B
:10416000C4B2062CF7DB19E0002406E01A48193027
:10417000015DA01D2954601CC4B2062CF6DB0DE0C5
:10418000002407E014481930015D04F10C002954A3
:10419000601CC4B2062CF5DB00E000BF00BF0E4877
:1041A0008670014681F8038019304863002081F849
:1041B000390081F8380001210648FEF744FB074822
:1041C0000088401C054908800120BDE8F0810020DE
:1041D000FBE7000000580040084600207C0000205B
:1041E00000B585B001218805FFF786FC0121082074
:1041F000FFF792FC4FF44060ADF8000003208DF80B
:1042000002001C208DF8030069461248FEF7C9F829
:104210000020ADF808004BF6FF70ADF80A00002052
:10422000ADF80C004FF48060ADF80E000001ADF861
:1042300010000948019001A90848FEF763FB01211D
:104240000648FEF7F4FA00200549C870087105B069
:1042500000BD0000000C0140E09304000058004045
:104260000846002008B501224FF4E0610748FEF738
:104270003FFB21208DF8000001208DF801008DF812
:1042800003006846FFF722FB08BD0000005800400D
:104290002DE9F05F05460E46002731462846FFF718
:1042A000F3F88046002415E055F824004146FCF759
:1042B00001F8824655F824004146FBF7FBFF834690
:1042C0005146FBF7FDFF81463946FBF7A1FF074644
:1042D000601C84B2B442E7DB3046FCF7F8F9814653
:1042E00049463846FCF722F807463846BDE8F09FB5
:1042F000490050EAC12018BF04204A0D18BF40F001
:10430000010040F2FF72B2EB515F08BF40F00200C3
:10431000012808BF052070472DE9F0414F1E00EB32
:10432000C7010446D1E9000115461E4637F00602D2
:104330000DD02A463346FCF7E0F87F1E04EBC70396
:10434000D3E90023FCF732F837F00602F1D1022F4F
:1043500025D0042F13D0062F18BFBDE8F0812A46C0
:104360003346FCF7CAF8D4E90A23FCF71FF82A46BB
:104370003346FCF7C2F8D4E90823FCF717F82A46BD
:104380003346FCF7BAF8D4E90623FCF70FF82A46BF
:104390003346FCF7B2F8D4E90423FCF707F82A46C1
:1043A0003346FCF7AAF8D4E90223FBF7FFFF2A46BD
:1043B0003346FCF7A2F8D4E90023BDE8F041FBF74F
:1043C000F5BF0000024A00201107FCF714BB0000F3
:1043D00001FDFFFF02E008C8121F08C1002AFAD140
:1043E00070477047002001E001C1121F002AFBD175
:1043F0007047000001490860704700008C000020F1
:104400002DE9F14F8EB04FF480700D9076490E98E3
:10441000FBF756FF80464046FCF76FF907900021F6
:104420000E98FCF7EFF902D20798401E0790079804
:10443000FCF744F941460690FBF73FFF80460D9894
:10444000FCF745F941460590FBF73AFF0690FCF76B
:104450006DF906463046FCF73AF906900D98FCF7E0
:1044600036F941460490FBF72BFF05900699FBF7C0
:1044700021FF05465D4800EB860401CC0B9001CC82
:104480000A9001CC099001CC089029465848FBF7C6
:1044900017FF294604902846FBF712FF4FF07C5186
:1044A0000290FBF70DFF03900499FBF703FF2946E9
:1044B00006902846FBF704FF294604904D48FBF779
:1044C000FFFE03900499FBF7FBFE80F0004005908F
:1044D0000699FBF79DFE814629464FF07C50FBF77D
:1044E000EFFE80F000404FF07E510490FBF790FE0D
:1044F000294606902846FBF7E3FE29460490284605
:10450000FBF7DEFE294602904FF07C50FBF7D8FE09
:1045100001900299FBF7D4FE03900499FBF7CAFEC1
:1045200005900699FBF774FE824629462846FBF75C
:10453000C7FE4FF07C510390FBF7C2FE2946049062
:10454000FBF766FE294606902846FBF7B9FE29468A
:1045500004904FF07C50FBF7B3FE03900499FBF7F7
:10456000AFFE80F0004005900699FBF751FE8346B0
:1045700029462048FBF7A4FE294606902846FBF76B
:104580009FFE294604901B48FBF79AFE039004996E
:10459000FBF796FE05900699FBF78CFE0C900C99A4
:1045A0000898FBF78DFE594604900998FBF788FEA2
:1045B00003900499FBF72CFE514606900A98FBF7EE
:1045C0007FFE494604900B98FBF77AFE039004990E
:1045D000FBF71EFE05900699FBF71AFE07463846C4
:1045E0000FB0BDE8F08F000083F9223EC0750008CF
:1045F000ABAAAA3EABAA2A3E2DE9F84F0746894648
:1046000092467C68D9F80450DAF8046038887988D2
:104610004843009000984FEA900815E002CD01CC85
:10462000FBF7F6FD01C602CD01CCFBF7F1FD01C69B
:1046300002CD01CCFBF7ECFD01C602CD01CCFBF7AE
:10464000E7FD01C6A8F10108B8F1000FE6D1009816
:1046500000F0030806E002CD01CCFBF7D9FD01C64E
:10466000A8F10108B8F1000FF5D14FF0000B584642
:10467000BDE8F88F2DE9F34F91B01198D0F8049070
:104680001298D0F804A0119800880B9011984588D2
:1046900000200990049054460B98059016E0059967
:1046A0000B98461A02E0002001C4761E002EFAD1B3
:1046B0004FF07E5001C40598461E02E0002001C460
:1046C000761E002EFAD10598401E05900598002808
:1046D000E5D103958046D3E008FB05F009EB8007A0
:1046E00008FB05F00AEB800B386809900120029066
:1046F00000213868FCF786F83ED108F101010B98DB
:10470000401A069034E005FB08F007EB800402989D
:1047100068430BEB8000109000212068FCF772F8D2
:1047200020D0A5EB080606E020680A90386801C48E
:104730000A9801C7761E002EF6D12E460DE010987D
:1047400000680A90DBF80010109801601098001DB6
:1047500010900A984BF8040B761E002EEFD1012022
:10476000049008E00298401C02900698401E0690B3
:1047700006980028C7D100BF0498012808D000215E
:104780000998FCF73FF803D16FF0040001907BE03B
:1047900008FB05F009EB80000F9008FB05F00AEB21
:1047A00080000D900F9F0D9C08FB05F059F820002C
:1047B0000990A5EB080607E038680890DDE90801D4
:1047C000FBF7B4FD01C7761E002EF5D12E4607E09B
:1047D00020680890DDE90801FBF7A8FD01C4761EFA
:1047E000002EF5D14F465446002006900B980290BB
:1047F0003CE00698404506D1A5EB080007EB800792
:1048000004EB85042AE0386807900F980E900D9805
:104810000C90A5EB08060DE0386808900E9802C8C9
:104820000E900798FBF74CFD00900899FBF745FDAB
:1048300001C7761E002EEFD12E460DE020680890AD
:104840000C9802C80C900798FBF73AFD0090089965
:10485000FBF733FD01C4761E002EEFD107EB88076E
:104860000298401E02900698401C0690029800286C
:10487000BFD109F104090398401E039008F1010813
:10488000039800287FF428AF00BF0020019004980F
:10489000012807D000210998FBF7B4FF02D16FF07F
:1048A00004000190019813B0BDE8F08F2DE9F74F97
:1048B0008AB0074688467C68D8F80450D7F804B018
:1048C0000C984068099038880690B8F80260B7F8EC
:1048D00002A0002004900698029000BF0499099855
:1048E00000EB810008900596D8F804500020039052
:1048F00000BF002007905C464FEAAA092FE001CCD8
:104900002968FBF7DDFC00900799FBF781FC079015
:1049100005EB860501CC2968FBF7D2FC00900799CE
:10492000FBF776FC079005EB860501CC2968FBF7C1
:10493000C7FC00900799FBF76BFC079005EB860519
:1049400001CC2968FBF7BCFC00900799FBF760FCE1
:10495000079005EB8605A9F101001FFA80F9B9F16E
:10496000000FCCD10AF003090EE001CC2968FBF757
:10497000A7FC00900799FBF74BFC079005EB860519
:10498000A9F101001FFA80F9B9F1000FEDD1DDE9BD
:10499000070108600898001D08900398401C80B229
:1049A0000390D8F80410039801EB80050598401E89
:1049B00080B20590059800289BD10498304480B2BD
:1049C00004900BEB8A0B0298401E80B20290029872
:1049D000002883D1019001980DB0BDE8F08F2DE93A
:1049E000F84F0746894692467C68D9F80450DAF8B1
:1049F0000460388879884843009000984FEA90080E
:104A000015E002CD01CCFBF755FC01C602CD01CC6F
:104A1000FBF750FC01C602CD01CCFBF74BFC01C6F5
:104A200002CD01CCFBF746FC01C6A8F10108B8F1A4
:104A3000000FE6D1009800F0030806E002CD01CC9B
:104A4000FBF738FC01C6A8F10108B8F1000FF5D159
:104A50004FF0000B5846BDE8F88F2DE9F0470446AB
:104A60000E466168D6F80490238867884FF0000CE2
:104A7000984600BFBD1009EB8C021BE051F804AB57
:104A8000C2F800A002EB830251F804ABC2F800A008
:104A900002EB830251F804ABC2F800A002EB8302E0
:104AA00051F804ABC2F800A002EB8302A5F1010AA1
:104AB0001FFA8AF5002DE1D107F0030509E051F84E
:104AC00004ABC2F800A002EB8302A5F1010A1FFAB1
:104AD0008AF5002DF3D10CF1010A1FFA8AFCA8F126
:104AE000010A1FFA8AF8B8F1000FC3D10020BDE80F
:104AF000F08700002DE9F14F8EB04FF480700D90DB
:104B000073490E98FBF7DCFB80464046FBF7F5FD4A
:104B1000079000210E98FBF775FE02D20798401E01
:104B200007900798FBF7CAFD41460690FBF7C5FBC7
:104B300080460D98FBF7CBFD41460590FBF7C0FB87
:104B40000690FBF7F3FD06463046FBF7C0FD0690E6
:104B50000D98FBF7BCFD41460490FBF7B1FB0590B7
:104B60000699FBF7A7FB05465A4800EB860401CCE3
:104B70000B9001CC0A9001CC099001CC08902946F9
:104B80002846FBF79DFB4FF07C510490FBF798FB08
:104B9000294606905048FBF793FB29460490284687
:104BA000FBF78EFB29460190FBF78AFB4B490290ED
:104BB000FBF786FB03900499FBF72AFB80F000408B
:104BC00005900699FBF724FB814629464FF07C505F
:104BD000FBF776FB294603902846FBF771FB029012
:104BE0000399FBF715FB294605902846FBF768FB60
:104BF00029460290FBF764FB4FF07C510390FBF7D2
:104C00005FFB04900599FBF755FB4FF07E51069032
:104C1000FBF7FEFA824629462846FBF751FB4FF088
:104C20007C510390FBF74CFB294605902846FBF787
:104C300047FB29460290FBF743FB4FF07C51039062
:104C4000FBF73EFB80F0004004900599FBF7E0FA8B
:104C500029460690FBF7DCFA834629461F48FBF7F6
:104C60002FFB294606902846FBF72AFB294603908E
:104C7000FBF726FB19490490FBF722FB05900699E8
:104C8000FBF718FB0C900C990898FBF719FB594699
:104C900004900998FBF714FB03900499FBF7B8FA0A
:104CA000514606900A98FBF70BFB494604900B9877
:104CB000FBF706FB03900499FBF7AAFA0590069907
:104CC000FBF7A6FA074638460FB0BDE8F08F0000A4
:104CD00083F9223ECC790008ABAAAA3EABAA2A3EB1
:104CE00070B505460C4600212846FBF795FD05D218
:104CF000284600F05EFE2060002070BD002020608D
:104D0000401EFAE770B505460C4600212846FBF721
:104D100083FD05D2284600F04CFE2060002070BDC7
:104D200000202060401EFAE770B505460C460021C1
:104D30002846FBF771FD05D2284600F03AFE2060B8
:104D4000002070BD00202060401EFAE72DE9F04DE4
:104D5000904F21F0004A86B005460C46BA4530DB3C
:104D6000AAEB070028430CD08B48824501DC1CD1FC
:104D7000DDB106B02846BDE8F04D4FF00102FBF76B
:104D80003ABE864A864B2846FBF7B7FB07460E46D7
:104D9000844A854B28462146FBF7AFFB06B03A46CE
:104DA0003346BDE8F04DFBF701BB0120FFF722FBC6
:104DB00006B00022BDE8F04D134610461146FBF741
:104DC0000EBC7A48824542DABAF1795F0BDA28469E
:104DD000FFF78EFA042808BFFFF7F4FA284606B05A
:104DE0002146BDE8F08D2A460B461046FBF785FBB1
:104DF000834602466E480E460B4606217844FFF76E
:104E00008BFA5A463346FBF778FB804669488A4658
:104E10005A46334604217844FFF77EFA5A46334611
:104E2000FBF76BFB00223B46FBF7C0FA02460B4642
:104E300040465146FBF7D3FB2A462346FBF75DFB72
:104E400006B02A462346BDE8F04DFBF7AFBA284628
:104E500024F0004100223D463B46FBF74BFB4FF060
:104E6000FF32FBF7C8FD0646024653480F460B4685
:104E700006217844FFF750FA32463B46FBF73DFBEC
:104E8000CDE900014D4832463B4604217844FFF706
:104E900043FA32463B46FBF730FB00222B46FBF73A
:104EA00085FA834602913046394600F05CFD804623
:104EB00043480D46504517DCDDE900015A46029B88
:104EC000FBF78DFB42462B46FBF717FB42462B4672
:104ED000FBF76CFA0122FBF78EFD304A304BFBF7F3
:104EE00006FB304A304B4CE04FF0000A52460B466E
:104EF0004046FBF75BFACDE9031052462B461046BD
:104F00001946FBF7FAFA32463B46FBF7F3FADDE9BE
:104F10000332FBF764FB06460F46DDE900015A4603
:104F2000029BFBF75CFB8346009101223046394629
:104F3000FBF761FD194A1A4BFBF7DCFA06460F46F0
:104F4000012240462946FBF756FD5A46009BFBF7D7
:104F5000D4FA32463B46FBF7CAFA07460E46012210
:104F600050462946FBF747FD0E4DDFF858802A468C
:104F70004346FBF7BFFA3A463346FBF7BBFA2A46ED
:104F80004346FBF7B7FA002CD8BF81F0004106B0CA
:104F9000BDE8F08D0000F03F0000F07F075C1433A7
:104FA00026A6913C182D4454FB21F93F0000E03F18
:104FB000283200003E320000B2310000C83100004B
:104FC0003333EF3FFB21E93F2DE9F84F04460D460F
:104FD00021F0004000917449814213DC73498842FA
:104FE00001DC08D13CB120462946BDE8F84F4FF01E
:104FF0000102FBF700BD6E48002DCCBF6D496E4924
:10500000BDE8F88F6D49814211DD6D498142D8BFFD
:105010004FF0FF366DDD20462946FFF769F9042879
:1050200008BFFFF7CFF920462946BDE8F88F65494C
:10503000654F25F00045814233DD6449814219DD29
:10504000002632464FF0804320462946FBF7AEF952
:1050500080468A46012220462946FBF7CCFC0022E6
:105060003B46FBF744FA42465346FBF7B8FA044680
:105070000D463EE001260022BA463B462046294620
:10508000FBF794F980460F460022534620462946F6
:10509000FBF72DFA42463B46FBF7A1FA04460D46C4
:1050A00027E04B4981421BDDDFF8288102260022E0
:1050B000434620462946FBF720FA00223B46FBF7F1
:1050C00075F907468A460022434620462946FBF7E3
:1050D0000EFA3A465346FBF782FA04460D4608E0BC
:1050E000032622462B4600203B49FBF778FA04466C
:1050F0000D4622462B4610461946FBF7FEF98B4615
:10510000824602460B46FBF7F8F90746024633484B
:1051100088460B4606217844FFF7FEF852465B4668
:10512000FBF7EBF982462E488B463A46434605216B
:105130007844FFF7F1F83A464346FBF7DEF90246BA
:105140000B46002E504659460CDAFBF72FF9224643
:105150002B46FBF7D2F901B022462B46BDE8F04FB3
:10516000FBF7C8B9FBF722F922462B46FBF7C5F936
:105170001C4A7A4402EBC603D3E90023FBF7B7F9D4
:1051800022462B46FBF7B3F9174A7A4402EBC603D3
:10519000D3E90023FBF7AEF9009A002AB8BF81F0EB
:1051A0000041BDE8F88F0000000010440000F07FCF
:1051B000182D4454FB21F93FFB21F9BF0000DC3FCF
:1051C0000000203E0000F33F0000F03F0000E63FFB
:1051D000008003400000F83F0000F0BFC62F000031
:1051E000842F0000222F0000EA2E00002DE9F04D50
:1051F0009446CCF1000423F000464CEA0404524FDC
:1052000046EAD4749A46884621F00042BC4206D849
:10521000454240EA050442EAD474BC4204D9BDE8E0
:10522000F04D6246FBF7C2B8AAF14055A5F17F6583
:1052300055EA0C040BD0022404EAAA74434DDFF8AB
:1052400010E144EAD87452EA000B04D00CE0BDE847
:10525000F04DFFF7B9BE002C14BF012CBDE8F08D56
:10526000022C30D0032C32D056EA0C0B0AD0BE42AE
:1052700020D1BA4209D126F0804622F0804233463E
:10528000114617E000291ADB25E0DFF8C8B0FB441F
:10529000002C04BFDBE90001BDE8F08D012C02BF4A
:1052A000DBE9000181F00041BDE8F08D022C0AD05D
:1052B000032C0CD0BA4212D1B8F1000F0BDA2348FC
:1052C0002549BDE8F08D28462449BDE8F08D2846E3
:1052D0007146BDE8F08D1D482149BDE8F08D921B57
:1052E00012153C2AC4BF19481D490EDCBAF1000F43
:1052F000BEBF12F13C0F0020014606DB6246FBF701
:105300006EF921F00041FFF75FFE002C08BFBDE8F9
:10531000F08D012C04BF81F00041BDE8F08D114AF1
:10532000114B022C07D0FBF7E2F82A46BDE8F04DFE
:105330000A4BFBF7DCB8FBF7DAF82A46BDE8F04D7C
:10534000064BFBF7D7B800000000F07F182D44543F
:10535000FB2109C07E2E0000FB21F9BFFB21094083
:10536000FB21F93F075C143326A6A13C2DE9F05F31
:1053700005460E4690469946DDE90AAB002705B181
:1053800016B90020BDE8F09F302000F073FA044603
:105390000CB90020F6E725706670C4F820A0C4F8A8
:1053A00024B00C98A0620D98E062A80000F062FAA8
:1053B0006060606808B9012000E000200743B00089
:1053C00000F058FAA060A06808B9012000E00020B1
:1053D000074305FB05F1880000F04CFAE060E06847
:1053E00008B9012000E00020074305FB05F1880013
:1053F00000F040FA2061206908B9012000E0002097
:10540000074306FB05F1880000F034FA606160692B
:1054100008B9012000E00020074327B1204601F031
:105420002FFB0020AEE705FB05F1880000F022FA13
:10543000A061A06920B9204601F022FB0020A1E76D
:1054400005FB05F18A004146A069FAF7B1FE06FBAB
:1054500006F1880000F00EFAE061E06920B920460C
:1054600001F00EFB00208DE706FB06F18A0049469D
:10547000E069FAF79DFE204684E700001FB500F0C2
:10548000A9F96421012001F0FBFC1F4908602021DB
:10549000012001F0F5FC1D49086000200123CDE941
:1054A000003002900346802219A103901B4801F0AE
:1054B00033FE00200223CDE90030029003464FF472
:1054C000807217A10390184801F026FE00200423E3
:1054D000CDE90030029003464FF4807213A103908F
:1054E000154801F019FE00200323CDE90030029099
:1054F00003464FF4207211A10390134801F00CFEF3
:1055000001F030FC00BFFEE704000020080000208E
:105510004C65643120666C61736800006169000845
:10552000666C6173680000009568000861687273BA
:105530005F636F6E66696700C962000861687273B5
:105540005F656B6600000000E159000810B5044675
:105550000E48006844600E480068844207D20B4839
:105560000168091D0B48006801F036FA0CE0074895
:105570000168091D0848006801F02EFA0748006814
:10558000844201D20548046010BD000024000020C0
:10559000300000205C000020580000205400002053
:1055A00070B505460E46442000F064F9044694B1F7
:1055B0001EB9A80000F05EF900E030462063206BC1
:1055C00020B9204601F05CFA002404E0A900A522DD
:1055D000206BFAF7FFFD204670BD000070B514483F
:1055E000006818B301F0E2FB1248006808B9012016
:1055F00000E00020054601F05BFEBDB901F026FA8F
:105600000C48C068C468201D01F00EFA0A48006802
:10561000401E0949086006480068401E04490860A9
:1056200001F020FA204600F04AF800BF70BD0000EB
:1056300028000020DC0100202C00002070B504466A
:105640000D46206870B1216CE0680844E060616834
:10565000E068884201D32068E0602846226CE16857
:10566000FAF7A6FD70BD70B504460E461546206CCF
:1056700008B37DB93146226CA068FAF799FD216C18
:10568000A0680844A060D4E90110884213D32068C0
:10569000A06010E03146226CE068FAF789FD216CC9
:1056A000E068401AE0602168E068884203D2216C1B
:1056B0006068401AE060A06B401CA06370BD10B52C
:1056C0000446206B01F0DCF9204601F0D9F910BD49
:1056D00000BFFFF783FF04480068012801D901F0EB
:1056E000EFF901F0D5F8F4E73C0100202DE9F04195
:1056F00004460E4615469846069F1022314604F190
:105700003400FAF779FD002143200155052D00D31F
:105710000425E562201D01F05CF904F1180001F098
:1057200058F92461C5F10500A0616462BDE8F0810B
:1057300010B5002407E004EB84010F4A02EB81005E
:1057400001F03AF9641C052CF5D30C4801F034F94A
:105750000B4801F031F90B4801F02EF90A4801F02D
:105760002BF90A4801F028F904480949086004485F
:105770000849086010BD00003C010020A001002085
:10578000B4010020C8010020DC010020F00100204D
:10579000580000205C00002070B5044601F056F966
:1057A000A06B08B9012000E00020054601F05AF97D
:1057B000284670BD70B5044601F048F9A06BE16B56
:1057C000884201D1012000E00020054601F04AF99D
:1057D000284670BD10B54FF44070FEF7B1F810BD0B
:1057E00003484FF0E021486107200861704700003E
:1057F0003F19010010B5044601F028F911E0606A74
:1058000008B9012000E0002050B904F1240001F0A3
:1058100015FD08B101F070FAA06C401EA06400E014
:1058200002E0A06C0028EADC00BF4FF0FF30A0646B
:1058300001F018F901F00AF911E0206908B9012016
:1058400000E0002050B904F1100001F0F7FC08B1AD
:1058500001F052FA606C401E606400E002E0606C8F
:105860000028EADC00BF4FF0FF30606401F0FAF876
:1058700010BD00002DE9F04104464FF0000801F092
:1058800095FA2D48006898B92C492D4A11600021DD
:1058900051604FF488412B4A516000211160274824
:1058A0004FF488414160114601600120224908609F
:1058B00044B1103414F0070F04D004F00700C0F115
:1058C00008000444002C31D0B4F5884F2ED21C4F70
:1058D0003846056801E02F462D686868A04202D26C
:1058E00028680028F7D1174885421FD0386800F192
:1058F0001008286838606868001B202810D92E1905
:105900006868001B70606C6071680D4800E000689A
:10591000026852688A42FAD302683260066000BFA9
:10592000094968680968081A0749086001F0C0FC5D
:105930004046BDE8F0810000680000200802002019
:105940006C0000207400002064000020001F4FF055
:1059500080730360001F0160001F00230360143880
:105960000260203870472DE9F04106460F46FBF7EC
:1059700059F804000D4618BF0120284320F00040CC
:10598000C0F17F6000F1E040C00F0ED0301C18BFA6
:105990000120384320F00040C0F17F6000F1E0407A
:1059A000C00F04BF0120FEF725FD20462946BDE8B3
:1059B000F08170B50546FAF790FF044620F00040EC
:1059C000C0F1FF40C00F08D025F00040C0F1FF40FB
:1059D000C00F04BF0120FEF70DFD204670BD000082
:1059E000F2B000207190659066906790619062902F
:1059F0006390FB4890E80E00C0685F935E925D91F3
:105A000060904FF48472F649103112A8FAF7D0FB77
:105A1000F448119018210AA8FAF7E3FB49E00023A3
:105A20005A1E68A9F048006801F062FA00207090E0
:105A300035E06BA8709950F821000790084601EBFB
:105A4000400101EBC00012A901EB8000069007990C
:105A5000FCF786FD6BA9709A41F822006EA8709938
:105A600030F911000590FAF729FE06907098C01CD5
:105A700000EB400101EBC00012A901EB8000059092
:105A80000699FCF76DFD0790FAF737FE02B26EA893
:105A9000709920F811207098401CC0B270907098D6
:105AA0000328C6DB7198401CC0B27190142001F02D
:105AB0000FF871983228B2DB002061AB61AA6EA9A1
:105AC00000906BA8FDF7FCFC61A95DA8FBF7D6FF71
:105AD0005DA954A8FDF73EFFBDF9BC010490FAF79B
