:020000040800F2
:10000000404A00208D01000817200008B91300089D
:1000100013200008F50D0008392500080000000035
:1000200000000000000000000000000001010008C6
:100030003B10000800000000350100080D440008D6
:10004000A7010008A7010008A7010008A7010008F0
:10005000A7010008A7010008A7010008A7010008E0
:10006000A7010008A7010008A7010008A7010008D0
:10007000F90D00080D0E0008A7010008A7010008EF
:10008000A7010008A7010008A7010008A7010008B0
:10009000A7010008A7010008A7010008A7010008A0
:1000A000A7010008A7010008A7010008A701000890
:1000B000A7010008A7010008A7010008DD13000838
:1000C000BD130008A7010008A7010008A701000848
:1000D000A7010008A7010008A7010008A701000860
:1000E000A7010008A7010008A7010008DFF80CD04D
:1000F00000F058FC00480047E12A0008404A002070
:100100001A4B19680868B0E8F00F80F309884FF0BF
:10011000000080F311884EF00D0E704700000000C3
:1001200003480068006880F3088862B600DF00BFFB
:1001300008ED00E0EFF309800C4B1A6820E9F00F9E
:10014000106008B54FF0BF0080F3118804F00CF97F
:100150004FF0000080F31188BDE808401968086876
:10016000B0E8F00F80F30988704700BF2C00002032
:1001700001B44FF0BF0080F3118801BC704701B497
:100180004FF0000080F3118801BC7047064880479B
:1001900006480047FEE7FEE7FEE7FEE7FEE7FEE76C
:1001A000FEE7FEE7FEE7FEE7D9240008ED000008C1
:1001B00040EA01039B0703D009E008C9121F08C0E9
:1001C000042AFAD203E011F8013B00F8013B521E69
:1001D000F9D27047D2B201E000F8012B491EFBD2E0
:1001E00070470022F6E710B513460A460446194642
:1001F000FFF7F0FF204610BD10B5044604E00B7871
:1002000000F8013B03B1491C521EF8D2204610BD34
:10021000F0B480EA0102D40F4200B2EB410F02D2E7
:100220000246084611464A0042D0C30DDDB2C1F372
:10023000C752AD1A202D35DAC1F3160141F4000280
:1002400004B15242C5F1200602FA06F12A411044D7
:10025000B3EBD05F23D0C4B1012DA0EBC35009DCB8
:10026000F0BC4FF0004202EAC35200F50000DBB2DE
:1002700000F00CBB400000F1807000EBC350A0F117
:10028000807040EAD170490009E0490841EAC07134
:10029000A0EBC35000F50000400800EBC350F0BCD9
:1002A00000F0EBBA6142012202EB4101001BF6E7CC
:1002B000F0BC704781F00041AAE780F00040A7E75A
:1002C00080EA010210B502F00043400026D04A0047
:1002D00023D04FEA106101EB1261C0F35600C2F364
:1002E000560240F4000042F40002A0FB0220A1F1FB
:1002F0007F014FEA0040140401D000F1010050EAF0
:10030000124001D44000491EC2B20C0604EBD010CA
:10031000401C4008802A02D003E0002010BD20F0DD
:100320000100002900DA0020184310BD30B480EA33
:10033000010202F0004530F0004221F0004015D0EB
:10034000A0B1C0F3C753C2F3C754C2F31601C0F340
:100350001600E41A41F4000140F400027D34914299
:1003600001D3641C00E04900002C02DA30BC0020FC
:1003700070474FF400000023914201D3891A0343D0
:1003800040084FEA4101F7D151B1914202D14FF0FB
:10039000004105E002D24FF0010101E06FF00101E0
:1003A00003EBC450284430BC00F067BA2DE9FE4F7F
:1003B000804681EA0300C00F0C46009021F0004106
:1003C00023F00045B8EB0200A94105D24046214682
:1003D00090461C460B46024623F00040104304D1D1
:1003E0004046214603B0BDE8F08F270DC7F30A0051
:1003F000C3F30A510290401A0190402866DAC3F311
:10040000130040F4801B0098924620B10023D2EBE9
:10041000030A63EB0B0B01985946C0F140025046AA
:1004200000F0FAF906460D4650465946019A00F08A
:1004300012FA10EB08006141002487EA115284EAA5
:10044000E7731A433BD0009A3AB3019A012A4FEA64
:10045000075210DC001B61EB02014FF0004202EA80
:100460000752CDE90042001C41F5801132462B466F
:1004700000F046FAB6E7001B61EB0201001C41F5F3
:10048000801300185B412018A2F5001747EB030109
:1004900040EAD570B6196D4111E06D084FEA360695
:1004A00045EAC0754FEA0752001B61EB0201001CD0
:1004B00041F5801149084FEA300000195141324698
:1004C0002B4603B0BDE8F04F00F00DBA00980122B2
:1004D00040000023D0EB020263EBE073009821465A
:1004E0004FEAE074B8EB000061EB0401E9E783F048
:1004F00000435BE781F0004158E72DE9FE4F81EAB8
:10050000030404F0004421F0004100944FF0000B7C
:1005100023F0004350EA010402D052EA030404D15C
:100520000020014603B0BDE8F08FC3F30A54C1F3C5
:100530000A552C44A4F2F3340194A0FB0254C1F3F5
:10054000130141F48011C3F3130343F4801301FB3F
:10055000024400FB034E840A970A44EA815447EAA6
:100560008357A4FB076802958D0A05FB07854FEAB0
:10057000932C04FB0C542705029D4FEA065847EACA
:100580001637B5EB08056EEB070C870E920E47EA9F
:10059000811742EA8312A7FB0201B6EB0B0164EB61
:1005A00000042B0D43EA0C335E1844EB1C50DA4672
:1005B0005146E7FB0201C5F313044FEA0B3343EA4C
:1005C00014534FEA0432019C43EA0603A4F10C04DD
:1005D0000294009CCDE900B400F092F9A2E72DE965
:1005E000F04D81EA030404F0004B21F0004514466D
:1005F0004FF0000A23F0004150EA050220D054EAEF
:1006000001021DD0C5F30A570246C5F31303C1F317
:100610001300C1F30A5640F4801543F48013A7EB8E
:100620000608101BD64608F2FD3873EB050002D30E
:1006300008F1010801E092185B41B8F1000F03DAFC
:1006400000200146BDE8F08D00204FF480110646E1
:1006500084460EE0171B73EB050705D3121B63EBF3
:10066000050306434CEA010C49084FEA3000921892
:100670005B4150EA0107EDD152EA030012D082EA51
:10068000040083EA0501084303D100224FF0004330
:1006900008E0101BAB4102D20122002302E06FF000
:1006A000010253101AEB06004CEB085110EB0A0044
:1006B00041EB0B01BDE8F04D00F015B99623002287
:1006C000114600F0E3B80EB5C10F80EAE0700844AF
:1006D000CA07002140F233438DE80E000A460B465C
:1006E00000F00EF903B000BD0EB540F233410291A7
:1006F0000021CDE900110A460B4600F001F903B0D4
:1007000000BD70B5C1F30A5201F000450024C1F3E9
:10071000130140F2FF3341F480119A4201DA0020C4
:1007200070BD40F233439A42A2F2334203DC52429C
:1007300000F081F800E090402C43F1D0404270BDC1
:1007400000F0004230F000400AD0C10D01F56071A8
:10075000C0F3160042EA0151C20840071143704736
:10076000002001467047000030B5002904DB4FF03F
:100770000044404264EB0101002B04DB4FF00044D5
:10078000524264EB03038B4208BF824230BD00003B
:1007900030B5002904DB4FF00044404264EB010116
:1007A000002B04DB4FF00044524264EB03039942F8
:1007B00008BF904230BD000001F0004330B421F08A
:1007C000004150EA010206D00A0DA2F56072C1F3A1
:1007D0001301002A02DC30BC00207047440F44EAB9
:1007E000C104C100E01830BC00EBC25000F045B8B5
:1007F000002801DBC0F10040002901DBC1F100410C
:1008000081427047002801DBC0F10040002901DB74
:10081000C1F1004188427047202A04DB203A00FAE7
:1008200002F1002070479140C2F1200320FA03F347
:10083000194390407047202A04DB203A21FA02F045
:100840000021704721FA02F3D040C2F1200291400A
:10085000084319467047202A06DBCB17203A41FA95
:1008600002F043EAE07306E041FA02F3D040C2F13D
:10087000200291400843194670470029A8BF7047DD
:10088000401C490008BF20F00100704710B4B0FAC6
:1008900080FC00FA0CF050EA010404BF10BC704761
:1008A00049B1CCF1200421FA04F411FA0CF118BF7B
:1008B000012121430843A3EB0C01CB1D0106000AD3
:1008C000002BBEBF002010BC704700EBC35010448B
:1008D0000029A4BF10BC7047401C490008BF20F08D
:1008E000010010BC704710B5002B08DA401C41F124
:1008F000000192185B411A4301D120F0010010BDA4
:100900002DE9F04D92469B4611B1B1FA81F202E019
:10091000B0FA80F220329046FFF77EFF04460F4681
:1009200040EA0A0041EA0B0153465A46084303D104
:1009300020463946BDE8F08D114653EA010015D036
:10094000C8F140025046FFF776FF05460E46504676
:1009500059464246FFF760FF084301D0012000E0FE
:100960000020054346EAE0762C4337430A984FEAD5
:100970004453A0EB08004FEAD4240A304FF00002A1
:1009800044EA47544FEAD72502D500200146D1E773
:10099000010510196941DDE9084500196941BDE803
:1009A000F04DA0E7064C074D06E0E06840F001037B
:1009B00094E8070098471034AC42F6D3FFF79AFB4F
:1009C00098490008B849000800E0401E0028FCD102
:1009D00070470000FEB506464FF2E4144FF40041A4
:1009E0006B4800F0A1FC0520FFF7EEFF200A00F0A5
:1009F000C9F98DF80000E0B200F0C4F98DF80100EB
:100A00000520FFF7E1FF4FF40041614800F08EFC44
:100A10003C20FFF7D9FF24F4606444F400744FF4E1
:100A200000415B4800F080FC0520FFF7CDFF200A65
:100A300000F0A8F98DF80200E0B200F0A3F98DF8FB
:100A400003000520FFF7C0FF4FF40041504800F0BD
:100A50006DFC3C20FFF7B8FF24F4606444F480642C
:100A60004FF400414A4800F05FFC0520FFF7ACFF5F
:100A7000200A00F087F98DF80400E0B200F082F956
:100A80008DF805000520FFF79FFF4FF40041404817
:100A900000F04CFC3C20FFF797FF24F4606444F422
:100AA00000644FF400413A4800F03EFC0520FFF797
:100AB0008BFF200A00F066F98DF80600E0B200F026
:100AC00061F98DF807000520FFF77EFF4FF4004124
:100AD0002F4800F02BFC3C20FFF776FF24F46064E5
:100AE00044F420644FF40041294800F01DFC052027
:100AF000FFF76AFF200A00F045F98DF80800E0B220
:100B000000F040F98DF809000520FFF75DFF4FF474
:100B100000411F4800F00AFC3C20FFF755FF24F479
:100B2000606444F440644FF40041194800F0FCFB59
:100B30000520FFF749FF200A00F024F98DF80A008C
:100B4000E0B200F01FF98DF80B000520FFF73CFF25
:100B50004FF400410E4800F0E9FB3C20FFF734FF62
:100B6000002512E0002026F815001DF815000002EF
:100B700026F8150036F815006900491C1DF801100B
:100B8000084326F81500681CC5B2062DEADBFEBD39
:100B9000000801402DE9FE43044689466846FFF7F8
:100BA00019FFBDF80010A1F5D040CE38FFF78BFD3E
:100BB00007462E4A2E4BFFF7A0FC0546FFF7FCFD2B
:100BC000C9F80000BDF80210A1F5D040CE38FFF7FB
:100BD0007AFD0746254A274BFFF78FFC0546FFF7AE
:100BE000EBFDC9F80400BDF80A10A1F5D040CE38DD
:100BF000FFF769FD07461D4A1E4BFFF77EFC0546C1
:100C0000FFF7DAFDC9F80800BDF80810A1F50140AA
:100C10004238FFF758FD0746174A184BFFF76DFC9F
:100C20000546FFF7C9FD2060BDF80610A1F5FC40A0
:100C3000E038FFF748FD07460F4A104BFFF75DFC11
:100C40000546FFF7B9FD6060BDF80410A1F503404B
:100C50004038FFF738FD0546074A084BFFF74DFCC3
:100C60000746FFF7A9FDA060BDE8FE8376AEDBFC7A
:100C70005FBA703F5FBA70BF8E21BCD1D9162D3FCD
:100C800000B587B00121880301F01AFA012108207C
:100C900001F026FA0121042001F022FA0121084680
:100CA00001F01EFA4FF40050ADF8040003208DF857
:100CB000060018208DF8070001A92E4800F063FAFD
:100CC0004FF40040ADF8040003208DF80600182012
:100CD0008DF8070001A9274800F055FA01212648A0
:100CE00000F0DAFA4FF40040ADF8040003208DF86C
:100CF000060010208DF8070001A9204800F043FAF3
:100D00004FF48040ADF8040004208DF8070001A9DD
:100D1000184800F038FA0021194801F05BFA002069
:100D2000ADF808004FF48270ADF80A000020ADF86D
:100D30000C00ADF80E00ADF810004FF40070ADF8E7
:100D400012002020ADF814000020ADF81600072096
:100D5000ADF8180002A90A4801F02DFB012108484E
:100D600001F038FA4FF40041044800F0DFFA07B010
:100D700000BD0000000C01400002300000080140EE
:100D80000038004010B5044600BF02210A4801F0B7
:100D900004FB0028F9D02146074801F00AFB00BFF8
:100DA0000121054801F0F9FA0028F9D0024801F0C4
:100DB000FDFAC0B210BD00000038004070B5044616
:100DC0000D4603F019F929462046FFF7E3FE03F02C
:100DD0001FF970BD10B1012806D102E0044A11705C
:100DE00003E0034A517000BF00BF00BF704700001E
:100DF0000900002000BFFEE710B5202000F0E0F859
:100E000010B1202000F01CF810BD000010B54FF408
:100E1000007000F0D5F858B10648007820B91822C3
:100E200005490648FFF7C4F94FF4007000F008F8D0
:100E300010BD00008400002008460020D44500209A
:100E400010F0805F02D00349086001E00249486069
:100E500070470000040402400000024021B1026813
:100E600042F00102026004E002684FF6FE731A408D
:100E70000260704701684FF6FE7211400160002168
:100E8000016041608160C1604B49884208D14A4994
:100E90000839496841F00F01474A083A51608AE031
:100EA00045491431884208D143490839496841F01D
:100EB000F001414A083A51607DE03F4928318842BB
:100EC00008D13D490839496841F470613A4A083A05
:100ED000516070E038493C31884208D136490839C0
:100EE000496841F47041344A083A516063E032493C
:100EF0005031884208D130490839496841F470219D
:100F00002D4A083A516056E02B496431884208D195
:100F100029490839496841F47001274A083A516063
:100F200049E025497831884208D123490839496880
:100F300041F07061204A083A51603CE01F49884204
:100F400006D1011F096841F00F01021F116032E054
:100F50001A491431884208D11849091F096841F01B
:100F6000F001164A121F116025E014492831884209
:100F700008D11249091F096841F470610F4A121F14
:100F8000116018E00D493C31884208D10B49091F16
:100F9000096841F47041094A121F11600BE00749CA
:100FA0005031884207D10549091F096841F4702171
:100FB000024A121F116070470800024008040240F4
:100FC00001460020002211F0805F02D0054B1A6814
:100FD00001E0054B1A680A4201D0012000E0002020
:100FE0007047000000040240000002401AB103688C
:100FF0000B43036002E003688B430360704710B546
:101000000022026847F6F0739A430C6A8B68234308
:101010000C6923434C6923438C692343CC692343E4
:101020004C6A23438C6A23431A430260CB684360B3
:101030000B6883604B68C36010BD70470149C8608E
:10104000704700000020024030B5044604254FF4EC
:10105000302000F085F80546042D17D10C480069B2
:1010600040F002000A49086108464461006940F006
:10107000400008614FF4302000F072F80546044843
:10108000006941F6FD71084001490861284630BDFC
:101090000020024004200B49C96811F0010F01D063
:1010A00001200EE00749C96811F0040F01D00220A9
:1010B00007E00449C96811F0100F01D0032000E0D7
:1010C00004207047002002400348006940F080007F
:1010D00001490861704700000020024078B50646CB
:1010E0000C46042500200090E80200F039F805467F
:1010F000042D24D11348006940F001001149086112
:101100003480E80200F02CF80546042D10D1B01C04
:101110000090200C00990880E80200F021F80546B4
:101120000848006941F6FE7108400649086106E07A
:101130000448006941F6FE710840024908612846EA
:1011400078BD00000020024002480349486003487F
:10115000486070472301674500200240AB89EFCD0E
:1011600000B502460423FFF795FF034603E0FFF7AF
:1011700091FF0346521E012B01D1002AF7D102B97B
:101180000523184600BD2DE9F04102460025002642
:10119000002000230024002791F803C00CF00F0565
:1011A00091F803C01CF0100F03D091F802C04CEA74
:1011B000050591F800C0BCF1000F31D01468002083
:1011C0002BE04FF0010C0CFA00F3B1F800C00CEA70
:1011D00003069E4220D183004FF00F0C0CFA03F758
:1011E000BC4305FA03FC4CEA040491F803C0BCF1CB
:1011F000280F06D14FF0010C0CFA00FCC2F814C005
:101200000AE091F803C0BCF1480F05D14FF0010C82
:101210000CFA00FCC2F810C0401C0828D1D314609E
:10122000B1F800C0BCF1FF0F34DD546800202EE09F
:1012300000F1080C4FF0010808FA0CF3B1F800C0F7
:101240000CEA03069E4221D183004FF00F0C0CFAEA
:1012500003F7BC4305FA03FC4CEA040491F803C00D
:10126000BCF1280F05D100F1080C08FA0CF8C2F8FF
:10127000148091F803C0BCF1480F07D100F1080CAD
:101280004FF0010808FA0CF8C2F81080401C08283A
:10129000CED35460BDE8F081F0B50A4600230024A7
:1012A0000021002500F00046B6F1004F02D11D4E8E
:1012B000F16901E01B4E7168C0F3034583B200F48D
:1012C0004016B6F5401F08D121F07061154E7668C2
:1012D00026F07066134F7E6012E000F48016B6F5BB
:1012E000801F06D1032606FA05F4A14341F0706180
:1012F00006E0460D360103FA06F6B14341F070618F
:1013000022B1460D360103FA06F6314300F00046DD
:10131000B6F1004F02D1034EF16101E0014E716060
:10132000F0BD00000000014041617047016170475D
:101330002DE9F0478AB08146002001900290039089
:1013400082461BE004A907A8FFF738FD00240CE043
:1013500007AA52F8241001AA52F82400FEF758FFF9
:1013600001A941F82400601CC4B2032CF0DB0A2060
:1013700002F084FE0AF101001FFA80FABAF5FA7F42
:10138000E0DB002410E001A951F82400FFF7D8F9B0
:1013900007460022074BFFF722F90546FFF70CFA34
:1013A00049F82400601CC4B2032CECDB0AB0BDE891
:1013B000F087000000407F4000BFFEE710B5054900
:1013C000054800F01BF918B10249034800F0CFF8B6
:1013D00010BD0000000400010054004010B550484A
:1013E00000F01FF904464F49601A8C422FD008DCE8
:1013F0006FF44030201809D0012864D03F286FD105
:101400006FE0022814D00428F9D13CE0464890F857
:10141000380030B9444801780022414800F092F980
:1014200005E04148017801223D4800F08BF975E064
:101430003D4841783A4800F08EF93B48007928B998
:1014400000224FF48061364800F0F8F866E0364834
:101450000079002810DD3448006B01783248006BB9
:10146000401C314B18632E4800F075F92E48007966
:10147000401E2D49087105E000224FF48061284884
:1014800000F0DCF84AE02848C07870B9012124480F
:1014900000F08BF800224FF40071214800F0CEF8E4
:1014A0000120214981F839000CE001201E4981F812
:1014B0003800012281021A4800F0C0F801211848C2
:1014C00000F067F82AE01848C078012807D1002109
:1014D000134800F02BF80121114800F066F81DE0D8
:1014E0001BE00F4800F02AF90F49496B08700E48BD
:1014F000406B401C0C4948630846C078401EC870C9
:101500000846C078012807D10021054800F00EF8F0
:101510000121034800F049F800E000BF00BF10BD02
:1015200000540040800007009845002021B1028847
:1015300042F48062028004E002884FF6FF331A40D2
:101540000280704770B50246002400250023002069
:10155000958A138B1B0445EA030626F07F4404EAB0
:1015600001068E4201D1012000E0002070BD002262
:1015700021F07F42D3438382704721B1028842F039
:101580000102028004E002884FF6FE731A400280D6
:10159000704721B1028842F48072028004E0028820
:1015A0004FF6FF631A400280704721B1028842F46F
:1015B0000072028004E002884FF6FF531A40028056
:1015C00070470CB50246002000230193009300925F
:1015D0000B0F019321F07F41019B1BB1009B143342
:1015E000009303E0090C009B18330093009B1B68D9
:1015F0000B4201D0012000E000200CBD30B50246B6
:1016000000200023948801F0E06504EA154321F0EE
:101610007F41948A0C4202D00BB1012000E00020EF
:1016200030BD10B501460020002300228B8A0A8BB2
:10163000120443EA020424F07F4010BD1AB18388EB
:101640000B43838002E083888B43838070470000D4
:101650002DE9F04385B004460D460026B146042727
:10166000DFF8CC80A6884FF6C0700640684600F0D0
:1016700047FDDDF808802F48B8FBF0F01FFA80F92D
:1016800046EA0906A68020884FF6FE7108402080B1
:1016900000262949286888420CD828684000B8FBF1
:1016A000F0F087B2042F00DA04273E4309F101006D
:1016B000208427E0E888A0F53F41FF3906D128685B
:1016C00000EB4000B8FBF0F087B209E0286800EBBF
:1016D000C00101EB0010B8FBF0F087B247F480477F
:1016E0003805000D01D147F0010747F400400643DB
:1016F0004FF4967009FB00F04FF47A7190FBF1F013
:10170000401C2084A683208840F001002080268889
:101710004FF6F5300640A8886989084306432680BD
:10172000A88929890843208105B0BDE8F08300001D
:1017300000127A0040420F00A08601000146088A8C
:10174000C0B2704712B141F0010102E04FF6FE73E2
:1017500019400182704701827047000008B50121DD
:10176000052000F0BDFC0620ADF8000010208DF82B
:10177000030003208DF8020069460248FFF703FDCD
:1017800008BD00000008014010B5044618220249B7
:101790002046FEF70DFD10BDB800002070B50446D0
:1017A0000D46164601211948FFF7F3FE00BF184900
:1017B0001648FFF7C7FE0028F9D00022214613483B
:1017C000FFF7C0FF00BF13491048FFF7BBFE00281A
:1017D000F9D031460D48FFF7BEFF00BF0D49891C07
:1017E0000A48FFF7AFFE0028F8D029780748FFF72E
:1017F000B2FF00BF0749891C0448FFF7A3FE002879
:10180000F8D001210148FFF7D0FE70BD0054004020
:1018100001000300820007001CB504462078400147
:10182000617840EAC100A17840EA8100E17840EAAD
:10183000410021790843C0B201900020009010229D
:1018400001A91C20FFF7AAFF112269461C20FFF7FF
:10185000A5FF1CBD1CB50246002015E000232DF895
:1018600010303DF8103012F8104043EA04231BB248
:101870002DF810303DF910304400641C145D2343F2
:101880002DF81030431CD8B20328E7DBBDF8003038
:101890005B421BB20B80BDF802304B80BDF80430B8
:1018A0008B801CBD1CB500208DF800008DF8010058
:1018B0008DF803008DF8020001208DF804006846C1
:1018C000FFF7AAFF1CBD00E0401E0028FCD17047B6
:1018D00038B50446002000904FF480516D48FFF762
:1018E00023FD0520FFF7EFFFA22000F023FB00F00F
:1018F0001BFB8DF8000000F017FB8DF801009DF830
:1019000001109DF8000041EA002060800520FFF7EB
:10191000DAFF4FF480515F48FFF708FD0520FFF71D
:10192000D2FF4FF480515B48FFF7FEFC0520FFF724
:10193000CAFFA42000F0FEFA00F0F6FA8DF80000CD
:1019400000F0F2FA8DF801009DF801109DF80000FA
:1019500041EA0020A0800520FFF7B5FF4FF4805139
:101960004C48FFF7E3FC0520FFF7ADFF4FF4805133
:101970004848FFF7D9FC0520FFF7A5FFA62000F097
:10198000D9FA00F0D1FA8DF8000000F0CDFA8DF808
:1019900001009DF801109DF8000041EA0020E08060
:1019A0000520FFF790FF4FF480513A48FFF7BEFC47
:1019B0000520FFF788FF4FF480513648FFF7B4FC4D
:1019C0000520FFF780FFA82000F0B4FA00F0ACFA81
:1019D0008DF8000000F0A8FA8DF801009DF80110C4
:1019E0009DF8000041EA002020810520FFF76BFFF1
:1019F0004FF480512748FFF799FC0520FFF763FF5C
:101A00004FF480512348FFF78FFC0520FFF75BFF61
:101A1000AA2000F08FFA00F087FA8DF8000000F09D
:101A200083FA8DF801009DF801109DF8000041EA4D
:101A3000002060810520FFF746FF4FF480511548D4
:101A4000FFF774FC0520FFF73EFF4FF4805111486B
:101A5000FFF76AFC0520FFF736FFAC2000F06AFABA
:101A600000F062FA8DF8000000F05EFA8DF80100D7
:101A70009DF801109DF8000041EA0020A08105209A
:101A8000FFF721FF4FF480510248FFF74FFC012080
:101A900038BD0000000C01402DE9F74F90B08246A0
:101AA0009346DAF80000FEF70EFECDE90201BBF81E
:101AB0000800FEF719FECDE90001DDE90223FEF77B
:101AC0001CFD0022A14BCDE90401FEF716FDCDE976
:101AD0000801BBF80400FEF707FE00224FF0824326
:101AE000CDE90401FEF709FDCDE90601DDE9082392
:101AF000FEF75CFCCDE90E01DAF80000FEF7E3FD2D
:101B0000CDE90201BBF80600FEF7EEFDCDE90001CC
:101B1000DDE90223FEF7F1FC00224FF07E53CDE910
:101B20000401FEF7EAFCCDE90801BBF80200FEF76C
:101B3000DBFD0022864BCDE90401FEF7DEFCCDE99A
:101B40000601DDE90823FEF731FCCDE90C01DAF8E6
:101B50000400B0F5FA6F7DDADAF80000FEF7B3FDA5
:101B6000CDE90601DAF80000FEF7ADFDCDE904018C
:101B7000DDE90623FEF7C1FC00224FF07853CDE9E2
:101B80000801FEF7BAFC80468946DAF80410A1F590
:101B9000FA60FEF798FDCDE90601DAF80400FEF7D9
:101BA00092FD00226B4BCDE90001FEF7A0FC002264
:101BB000694BCDE90201FEF7A0FCCDE90401DDE9A6
:101BC0000623FEF79AFC0022644BCDE90801FEF7DC
:101BD00094FC06460F46DAF80410A1F5FA60FEF709
:101BE00072FDCDE90801DAF80400FEF76CFD002271
:101BF000584BCDE90201FEF77AFC00224FF08043FA
:101C0000CDE90401FEF779FCCDE90601DDE9082301
:101C1000FEF773FC04460D465149DAF80400884289
:101C200055DADAF8041001F2DC50FEF74CFDCDE98C
:101C30000601DAF80400FEF746FD0022494BCDE923
:101C40000001FEF7B3FB0022474BCDE90201FEF78E
:101C500054FC00E034E0CDE90401DDE90623FEF7A1
:101C60004CFC32463B46CDE90801FEF79FFB064699
:101C70000F46DAF8041001F2DC50FEF724FDCDE93E
:101C80000601DAF80400FEF71EFD0022354BCDE90F
:101C90000001FEF78BFB0022344BCDE90201FEF779
:101CA0002CFCCDE90401DDE90623FEF726FC2246E3
:101CB0002B46CDE90801FEF779FB04460D4606E008
:101CC0004FF00008C146002637460024254640460E
:101CD0004946FEF716FDDAF80410081ACAF804009F
:101CE00032463B46DDE90E01FEF701FCCDE90E016F
:101CF00022462B46DDE90C01FEF7F9FBCDE90C018C
:101D00001198FEF7F1FCCDE90201DDE90C23FEF7A5
:101D1000F4FB0022164BCDE90401FEF7EEFBCDE902
:101D20000601DDE90E23FEF7E2FB00224FF07C53B3
:101D3000CDE90801FEF7E1FBCDE90A01DDE90A0181
:101D4000FEF7DFFC13B0BDE8F08F00000000903F0D
:101D50000000F04000409F4000804E400000B03F37
:101D600024FAFFFF0070974000002E400000204042
:101D70000000A03EF0B503465089A1EB002018609A
:101D80001C68E61790890025A4FB007C06FB00C0B8
:101D900004FB0500440244EAD7504FF4FA640019EA
:101DA00058605868F0BD000038B504460020206037
:101DB0004FF480511248FFF7B7FA0520FFF783FD73
:101DC000002000F0B7F800250DE020680002206038
:101DD00000F0AAF80DF805001DF80510206808436A
:101DE0002060681CC5B2032DEFDB0520FFF76BFDFB
:101DF0004FF480510248FFF799FA012038BD0000E6
:101E0000000C014010B51E244FF480510948FFF723
:101E10008BFA0520FFF757FD204600F08BF80520D0
:101E2000FFF751FD4FF480510248FFF77FFA012080
:101E300010BD0000000C014000B587B00121082052
:101E400000F04EF90121880300F03AF94FF4805078
:101E5000ADF8040003208DF8060010208DF807006F
:101E600001A92E48FFF78FF94FF40050ADF8040098
:101E700003208DF8060018208DF8070001A92748D7
:101E8000FFF781F94FF40040ADF8040003208DF80E
:101E9000060018208DF8070001A92048FFF773F904
:101EA0004FF48040ADF8040004208DF8070001A92C
:101EB0001A48FFF768F901211948FFF7EDF90021E9
:101EC000184800F087F90020ADF808004FF4827040
:101ED000ADF80A000020ADF80C00ADF80E00ADF82A
:101EE00010004FF40070ADF812002020ADF814007F
:101EF0000020ADF816000720ADF8180002A9094827
:101F000000F059FA0121074800F064F94FF48051BC
:101F10000248FFF70BFA07B000BD0000000C0140BB
:101F2000000230000038004010B5FF2000F002F839
:101F300010BD000010B5044600BF02210A4800F0A1
:101F40002CFA0028F9D02146074800F032FA00BFE9
:101F50000121054800F021FA0028F9D0024800F0DC
:101F600025FAC0B210BD00000038004070B504462C
:101F700044F040054FF480510948FFF7D5F905209A
:101F8000FFF7A1FC2846FFF7D5FF0520FFF79BFCD4
:101F90004FF480510248FFF7C9F9012070BD0000DD
:101FA000000C014070B5044644F050054FF48051D8
:101FB0000948FFF7B9F90520FFF785FC2846FFF728
:101FC000B9FF0520FFF77FFC4FF480510248FFF76F
:101FD000ADF9012070BD0000000C01402DE9F04179
:101FE00006460C460027002507E056F8251038461F
:101FF000FEF70EF90746681C85B2A542F5DB2046C0
:10200000FEF75CFB804641463846FEF78FF9BDE897
:10201000F08100BFFEE7704770B5002100230F225A
:10202000C4780CB3164C246804F4E064C4F5E0648E
:10203000210AC1F10403CA40447804FA03F1847808
:102040001440214309010F4C0678A155047804F08F
:102050001F050124AC4005786D114FF0E02606EB1A
:102060008505C5F8004109E0047804F01F05012446
:10207000AC40054D0678761145F8264070BD00004D
:102080000CED00E000E400E080E100E002490143E3
:10209000024A1160704700000000FA050CED00E0F4
:1020A00029B1064A52690243044B5A6104E0034ACB
:1020B00052698243014B5A61704700000010024090
:1020C00029B1064AD2690243044BDA6104E0034AAB
:1020D000D2698243014BDA61704700000010024070
:1020E00029B1064A92690243044B9A6104E0034A0B
:1020F00092698243014B9A617047000000100240D0
:1021000030B500210022002400232D4D6D6805F01C
:102110000C0121B1042905D0082923D105E0294D5E
:10212000056022E0274D05601FE0254D6D6805F430
:102130007012234D6D6805F48034022505EB924240
:102140001CB9214D554305600BE01D4D6D6815F41C
:10215000003F03D01C4D5543056002E0194D554327
:10216000056002E0174D056000BF00BF144D6D68AB
:1021700005F0F0010909154D6B5C0568DD4045600F
:102180000F4D6D6805F4E061090A104D6B5C456800
:10219000DD4085600A4D6D6805F46051C90A0B4D3C
:1021A0006B5C4568DD40C560054D6D6805F44041D8
:1021B000890B074D6B5CC568B5FBF3F5056130BD58
:1021C0000010024000127A0000093D0018000020B3
:1021D0002800002021B1028842F04002028004E081
:1021E00002884FF6BF731A400280704700B591B065
:1021F00001210803FFF774FF01210420FFF770FF9E
:1022000001210846FFF74CFFC020ADF82C00032049
:102210008DF82E0018208DF82F000BA94148FEF7ED
:10222000B2FF3020ADF82C0004208DF82F000BA950
:102230003C48FEF7A8FF00213B48FFF7CBFF0020FA
:10224000ADF83000ADF83200ADF834000220ADF842
:1022500036000120ADF838000020ADF83A00182013
:10226000ADF83C000020ADF83E000720ADF840007E
:102270000CA92D4800F09FF82C48FEF7FBFD2A48DA
:102280000C3000902A480190002002901A20039000
:1022900000200490802005900020069007902020C8
:1022A00008904FF44050099000200A9069461F485A
:1022B000FEF7A5FE1D481430FEF7DCFD1A480C3071
:1022C00000901C480190102002901A2003900020DA
:1022D0000490802005900020069007902020089010
:1022E0000002099000200A90694610481430FEF759
:1022F00086FE012203210C4800F046F801210A481D
:10230000FFF768FF01210948FEF7A8FD01210748F2
:102310001430FEF7A3FDBB2006494876087611B0BD
:1023200000BD000000080140003001401C000240D8
:10233000EE450020D445002008B5012202211148B5
:10234000FEF754FE012202210E481438FEF74EFE1D
:102350000C208DF8000003208DF8010001208DF87D
:1023600003006846FFF758FE0D208DF8000004209A
:102370008DF8010001208DF803006846FFF74CFE40
:1023800008BD0000300002401AB183880B438380EF
:1023900002E083888B4383807047024600201389C4
:1023A0000B4201D0012000E00020704701468889DF
:1023B00070478181704710B50022028802F44152B3
:1023C0000B884C8823438C882343CC8823430C8977
:1023D00023434C8923438C892343CC8923431A43C9
:1023E0000280838B4FF2FF74234083830B8A038226
:1023F00010BD10B500F002F810BD00000CB50020B3
:10240000019000903248006840F480303049086004
:1024100000BF2F48006800F4003000900198401C75
:102420000190009818B90198B0F5A06FF1D1284833
:10243000006810F4003F02D00120009001E000206D
:1024400000900098012842D12248006840F0100016
:10245000204908600846006820F00300086008462C
:10246000006840F002000860194840681849486058
:102470000846406848600846406840F4806048600C
:102480000846406820F47C1048600846406840F4E4
:10249000E81048600846006840F08070086000BF9F
:1024A0000B48006810F0007FFAD00948406820F01F
:1024B0000300074948600846406840F00200486051
:1024C00000BF0348406800F00C000828F9D10CBD9B
:1024D000001002400020024010B51348006840F090
:1024E00001001149086008464068104908400E493B
:1024F0004860084600680E4908400B4908600846D5
:10250000006820F4802008600846406820F4FE003F
:1025100048604FF41F008860FFF76BFF4FF00060CA
:102520000449086010BD0000001002400000FFF8E0
:10253000FFFFF6FE08ED00E000BFFEE72DE9F041E9
:1025400005460E46174698464FF400311748FFF7E8
:1025500038F848BB01211548FEF7E8FF01224FF487
:10256000E0611248FFF76AF81148057047700024CF
:1025700005E00F481930005D3055601CC4B2062CD0
:10258000F7DB0B488570014681F8038019304863FA
:10259000002081F8390081F8380001210348FEF756
:1025A000F8FF0120BDE8F0810020FBE70054004067
:1025B0009845002000B585B001214805FFF780FD52
:1025C00001210820FFF78CFDC020ADF8000003209A
:1025D0008DF802001C208DF8030069461148FEF7B3
:1025E000D2FD0020ADF808004BF6FF70ADF80A00F0
:1025F0000020ADF80C004FF48060ADF80E00000133
:10260000ADF810000848019001A90848FFF720F82C
:1026100001210648FEF7B1FF00200549C870087186
:1026200005B000BD000C0140E093040000540040E0
:102630009845002008B501224FF4E0610748FEF7F5
:10264000FDFF1F208DF8000001208DF801008DF89E
:1026500003006846FFF7E0FC08BD0000005400409E
:102660002DE9F05F05460E46002731462846FFF764
:10267000B5FC8046002415E055F824004146FDF7DE
:1026800019FE824655F824004146FDF713FE8346A5
:102690005146FDF715FE81463946FDF7B9FD07465F
:1026A000601C84B2B442E7DB3046FEF707F881468F
:1026B00049463846FDF73AFE07463846BDE8F09FE2
:1026C00002E008C8121F08C1002AFAD170477047FB
:1026D000002001E001C1121F002AFBD170472DE943
:1026E000F34F91B01198D0F804901298D0F804A04C
:1026F000119800880B90119845880020099004904B
:1027000054460B98059016E005990B98461A02E07E
:10271000002001C4761E002EFAD14FF07E5001C475
:102720000598461E02E0002001C4761E002EFAD154
:102730000598401E059005980028E5D10395804630
:10274000D3E008FB05F009EB800708FB05F00AEB76
:10275000800B386809900120029000213868FEF74C
:1027600047F83ED108F101010B98401A069034E079
:1027700005FB08F007EB8004029868430BEB800030
:10278000109000212068FEF733F820D0A5EB080652
:1027900006E020680A90386801C40A9801C7761ECE
:1027A000002EF6D12E460DE0109800680A90DBF856
:1027B0000010109801601098001D10900A984BF8B6
:1027C000040B761E002EEFD10120049008E0029841
:1027D000401C02900698401E069006980028C7D11B
:1027E00000BF0498012808D000210998FEF700F8DE
:1027F00003D16FF0040001907BE008FB05F009EBCA
:1028000080000F9008FB05F00AEB80000D900F9FF1
:102810000D9C08FB05F059F820000990A5EB08066F
:1028200007E038680890DDE90801FDF77FFD01C782
:10283000761E002EF5D12E4607E020680890DDE9CF
:102840000801FDF773FD01C4761E002EF5D14F4639
:102850005446002006900B9802903CE006984045B4
:1028600006D1A5EB080007EB800704EB85042AE0FE
:10287000386807900F980E900D980C90A5EB0806FD
:102880000DE0386808900E9802C80E900798FDF782
:1028900017FD00900899FDF710FD01C7761E002E68
:1028A000EFD12E460DE0206808900C9802C80C90DD
:1028B0000798FDF705FD00900899FDF7FEFC01C49F
:1028C000761E002EEFD107EB88070298401E02907B
:1028D0000698401C069002980028BFD109F104090F
:1028E0000398401E039008F10108039800287FF424
:1028F00028AF00BF002001900498012807D00021D4
:102900000998FDF775FF02D16FF00400019001985E
:1029100013B0BDE8F08F2DE9F74F8AB0074688461F
:102920007C68D8F80450D7F804B00C984068099037
:1029300038880690B8F80260B7F802A0002004902A
:102940000698029000BF0499099800EB8100089056
:102950000596D8F804500020039000BF002007908F
:102960005C464FEAAA092FE001CC2968FDF7A8FCD4
:1029700000900799FDF74CFC079005EB860501CC0C
:102980002968FDF79DFC00900799FDF741FC079031
:1029900005EB860501CC2968FDF792FC00900799AC
:1029A000FDF736FC079005EB860501CC2968FDF79D
:1029B00087FC00900799FDF72BFC079005EB860537
:1029C000A9F101001FFA80F9B9F1000FCCD10AF08A
:1029D00003090EE001CC2968FDF772FC009007990D
:1029E000FDF716FC079005EB8605A9F101001FFA1B
:1029F00080F9B9F1000FEDD1DDE907010860089811
:102A0000001D08900398401C80B20390D8F8041071
:102A1000039801EB80050598401E80B2059005984B
:102A200000289BD10498304480B204900BEB8A0BB1
:102A30000298401E80B202900298002883D1019033
:102A400001980DB0BDE8F08F2DE9F04704460E4621
:102A50006168D6F80490238867884FF0000C984688
:102A600000BFBD1009EB8C021BE051F804ABC2F8AB
:102A700000A002EB830251F804ABC2F800A002EB05
:102A8000830251F804ABC2F800A002EB830251F8B4
:102A900004ABC2F800A002EB8302A5F1010A1FFA01
:102AA0008AF5002DE1D107F0030509E051F804ABE8
:102AB000C2F800A002EB8302A5F1010A1FFA8AF511
:102AC000002DF3D10CF1010A1FFA8AFCA8F1010ACA
:102AD0001FFA8AF8B8F1000FC3D10020BDE8F087D3
:102AE0001FB500F0B1F93021012001F09FFC22490F
:102AF00008602021012001F099FC20490860142180
:102B0000012001F093FC1E49086000200123CDE95B
:102B100000300290034680221AA103901C4801F065
:102B2000D1FD00200123CDE9003002900346802230
:102B300018A103901A4801F0C5FD00200223CDE939
:102B40000030029003464FF4807216A1039017489C
:102B500001F0B8FD00200423CDE9003002900346C7
:102B60004FF4807212A10390144801F0ABFD01F004
:102B7000CFFB00BFFEE700000C000020100000208B
:102B8000040000204C65643120666C6173680000AD
:102B9000B93E00084C65643220666C6173680000C1
:102BA000113F0008666C617368000000ED3D00088D
:102BB000616872735F636F6E666967000139000850
:102BC00010B504460E48006844600E480068844210
:102BD00007D20B480168091D0B48006801F0D2F9C3
:102BE0000CE007480168091D0848006801F0CAF9AF
:102BF00007480068844201D20548046010BD000007
:102C00002C0000203800002064000020600000201C
:102C10005C00002070B505460E46442000F068F9BF
:102C2000044694B11EB9A80000F062F900E03046F5
:102C30002063206B20B9204601F0F8F9002404E05D
:102C4000A900A522206BFDF7C5FA204670BD000043
:102C500070B51448006818B301F07EFB1248006894
:102C600008B9012000E00020054601F0F7FDBDB9DC
:102C700001F0C2F90C48C068C468201D01F0AAF92F
:102C80000A480068401E0949086006480068401E5E
:102C90000449086001F0BCF9204600F04AF800BF82
:102CA00070BD0000300000207001002034000020C2
:102CB00070B504460D46206870B1216CE068084488
:102CC000E0606168E068884201D32068E0602846DF
:102CD000226CE168FDF76CFA70BD70B504460E46D3
:102CE0001546206C08B37DB93146226CA068FDF70B
:102CF0005FFA216CA0680844A060D4E90110884202
:102D000013D32068A06010E03146226CE068FDF724
:102D10004FFA216CE068401AE0602168E068884260
:102D200003D2216C6068401AE060A06B401CA06375
:102D300070BD10B50446206B01F078F9204601F013
:102D400075F910BD00BFFFF783FF04480068012834
:102D500001D901F08BF901F047F8F4E7D000002029
:102D60002DE9F04104460E4615469846069F10226E
:102D7000314604F13400FDF73FFA002143200155AC
:102D8000052D00D30425E562201D01F0F8F804F1BB
:102D9000180001F0F4F82461C5F10500A061646237
:102DA000BDE8F08110B5002407E004EB84010F4A70
:102DB00002EB810001F0D6F8641C052CF5D30C4819
:102DC00001F0D0F80B4801F0CDF80B4801F0CAF83B
:102DD0000A4801F0C7F80A4801F0C4F80448094954
:102DE000086004480849086010BD0000D0000020B9
:102DF00034010020480100205C0100207001002007
:102E000084010020600000206400002070B50446AA
:102E100001F0F2F8A06B08B9012000E0002005469F
:102E200001F0F6F8284670BD70B5044601F0E4F8EC
:102E3000A06BE16B884201D1012000E00020054633
:102E400001F0E6F8284670BD10B54FF44070FFF76A
:102E50001DF9FFF7CBF9FFF76FFA10BD03484FF0EC
:102E6000E021486107200861704700003F19010018
:102E700010B5044601F0C0F811E0606A08B90120FD
:102E800000E0002050B904F1240001F0ADFC08B1CD
:102E900001F008FAA06C401EA06400E002E0A06C03
:102EA0000028EADC00BF4FF0FF30A06401F0B0F86A
:102EB00001F0A2F811E0206908B9012000E000202B
:102EC00050B904F1100001F08FFC08B101F0EAF9EB
:102ED000606C401E606400E002E0606C0028EADC88
:102EE00000BF4FF0FF30606401F092F810BD0000A9
:102EF0002DE9F04104464FF0000801F02DFA2D486D
:102F0000006898B92C492D4A1160002151604FF496
:102F100088412B4A51600021116027484FF48841B5
:102F200041601146016001202249086044B110341B
:102F300014F0070F04D004F00700C0F108000444A7
:102F4000002C31D0B4F5884F2ED21C4F384605687E
:102F500001E02F462D686868A04202D22868002848
:102F6000F7D1174885421FD0386800F1100828684B
:102F700038606868001B202810D92E196868001B6B
:102F800070606C6071680D4800E00068026852680B
:102F90008A42FAD302683260066000BF0949686855
:102FA0000968081A0749086001F058FC4046BDE866
:102FB000F0810000700000209801002074000020C3
:102FC0007C0000206C000020001F4FF08073036025
:102FD000001F0160001F00230360143802602038C6
:102FE0007047000001B5ADF5367D3021AAA8FDF788
:102FF000F8F8482198A8FDF7F4F86022FE4980A867
:10300000FDF7D6F800207D907E907F907A907B909F
:103010007C90799078904FF4C87114A8FDF7E1F88E
:103020000320ADF848000420ADF84A00AAA8139088
:103030000320ADF840000620ADF8420098A811909A
:103040000420ADF838000620ADF83A0080A80F90B3
:1030500003210020FDF7BEFE41F2883001F00EF89A
:1030600002210020FDF7B6FE002005900FE07DA9AB
:103070007AA8FDF7A3FE14AA7A99059842F82010C1
:10308000142000F0FBFF0598401CC0B20590059885
:103090006428ECDB03210020FDF79CFE642114A8CA
:1030A000FFF7DEFA78907DA97AA8FDF787FE1EE08B
:1030B000002005900FE07DA97AA8FDF77FFE14AAF5
:1030C0007A99059842F82010142000F0D7FF05984F
:1030D000401CC0B2059005986428ECDB642114A85C
:1030E000FFF7BEFA79907DA97AA8FDF767FE7D9873
:1030F0000190FDF725FB4FF03332C04BCDE90201C3
:10310000FDF732FBD4D378997998FDF77BFBCFD3C9
:1031100002210020FDF75EFE7D9898907E989E909B
:103120007F98A490022005904FE07DA97AA8FDF732
:1031300045FE0598FDF7C2FA0390989801907D9896
:1031400000900199FDF7B6F802900399FDF7EEF8AB
:1031500004909898014603900498FDF759F89890C8
:103160000598FDF7ABFA03909E9801907E98009029
:103170000199FDF79FF802900399FDF7D7F80490A5
:103180009E98014603900498FDF742F89E9005989A
:10319000FDF794FA0390A49801907F98009001990C
:1031A000FDF788F802900399FDF7C0F80490A49801
:1031B000014603900498FDF72BF8A490322000F00C
:1031C0005DFF0598401CC0B2059005986428ACDBF3
:1031D00003210020FDF7FEFD7DA97AA8FDF7EEFD95
:1031E0001EE0002005900FE07DA97AA8FDF7E6FD1E
:1031F00014AA7A99059842F82010142000F03EFF96
:103200000598401CC0B2059005986428ECDB642149
:1032100014A8FFF725FA79907DA97AA8FDF7CEFDCD
:103220007D980190FDF78CFA4FF03332744BCDE965
:103230000201FDF7ADFAD4D378997998FDF7E2FA57
:10324000CFD302210020FDF7C5FD7D9899907E988F
:103250009F907F98A590022005904FE07DA97AA8C5
:10326000FDF7ACFD0598FDF729FA039099980190B8
:103270007D9800900199FDF71DF802900399FDF7E4
:1032800055F804909998014603900498FCF7C0FF04
:1032900099900598FDF712FA03909F9801907E98F7
:1032A00000900199FDF706F802900399FDF73EF8AA
:1032B00004909F98014603900498FCF7A9FF9F9003
:1032C0000598FDF7FBF90390A59801907F98009071
:1032D0000199FCF7EFFF02900399FDF727F804909E
:1032E000A598014603900498FCF792FFA590322020
:1032F00000F0C4FE0598401CC0B2059005986428F3
:10330000ACDB03210020FDF765FD7DA97AA8FDF760
:1033100055FD1EE0002005900FE07DA97AA8FDF77D
:103320004DFD14AA7A99059842F82010142000F057
:10333000A5FE0598401CC0B2059005986428ECDBFA
:10334000642114A8FFF78CF979907DA97AA8FDF77C
:1033500035FD7E980190FDF7F3F94FF03332274B9E
:10336000CDE90201FDF700FAD4D378997998FDF7F9
:1033700049FACFD302210020FDF72CFD7D989A90C9
:103380007E98A0907F98A6900220059057E07DA996
:103390007AA8FDF713FD0598FDF790F903909A9828
:1033A00001907D9800900199FCF784FF02900399A9
:1033B000FCF7BCFF04909A98014603900498FCF730
:1033C00027FF9A900598FDF779F90390A09801904E
:1033D0007E9800900199FCF76DFF02900399FCF72D
:1033E000A5FF0490A098014603900498FCF710FFF5
:1033F000A090059806E000003849000833331F40CC
:1034000033331FC0FDF75AF90390A69801907F98B7
:1034100000900199FCF74EFF02900399FCF786FF9C
:103420000490A698014603900498FCF7F1FEA6903C
:10343000322000F023FE0598401CC0B2059005988C
:103440006428A4DB03210020FDF7C4FC7DA97AA831
:10345000FDF7B4FC1EE0002005900FE07DA97AA8DE
:10346000FDF7ACFC14AA7A99059842F820101420B4
:1034700000F004FE0598401CC0B205900598642831
:10348000ECDB642114A8FFF7EBF879907DA97AA80A
:10349000FDF794FC7E980190FDF752F94FF033321E
:1034A000FE4BCDE90201FDF773F9D4D378997998F1
:1034B000FDF7A8F9CFD302210020FDF78BFC7D9802
:1034C0009B907E98A1907F98A790022005904FE056
:1034D0007DA97AA8FDF772FC0598FDF7EFF8039037
:1034E0009B9801907D9800900199FCF7E3FE029073
:1034F0000399FCF71BFF04909B98014603900498E6
:10350000FCF786FE9B900598FDF7D8F80390A198EC
:1035100001907E9800900199FCF7CCFE02900399EF
:10352000FCF704FF0490A198014603900498FCF76F
:103530006FFEA1900598FDF7C1F80390A798019040
:103540007F9800900199FCF7B5FE02900399FCF773
:10355000EDFE0490A798014603900498FCF758FEEE
:10356000A790322000F08AFD0598401CC0B205905B
:1035700005986428ACDB03210020FDF72BFC7DA916
:103580007AA8FDF71BFC1EE0002005900FE07DA946
:103590007AA8FDF713FC14AA7A99059842F820102E
:1035A000142000F06BFD0598401CC0B205900598F2
:1035B0006428ECDB642114A8FFF752F879907DA908
:1035C0007AA8FDF7FBFB7F980190FDF7B9F84FF063
:1035D0003332B34BCDE90201FDF7C6F8D4D3789965
:1035E0007998FDF70FF9CFD302210020FDF7F2FB08
:1035F0007D989C907E98A2907F98A890022005903C
:103600004FE07DA97AA8FDF7D9FB0598FDF756F89C
:1036100003909C9801907D9800900199FCF74AFED8
:1036200002900399FCF782FE04909C980146039057
:103630000498FCF7EDFD9C900598FDF73FF803908A
:10364000A29801907E9800900199FCF733FE0290B9
:103650000399FCF76BFE0490A2980146039004982E
:10366000FCF7D6FDA2900598FDF728F80390A898DE
:1036700001907F9800900199FCF71CFE029003993D
:10368000FCF754FE0490A898014603900498FCF7B8
:10369000BFFDA890322000F0F1FC0598401CC0B29C
:1036A000059005986428ACDB03210020FDF792FB10
:1036B0007DA97AA8FDF782FB1EE0002005900FE0AF
:1036C0007DA97AA8FDF77AFB14AA7A99059842F8A1
:1036D0002010142000F0D2FC0598401CC0B20590C8
:1036E00005986428ECDB642114A8FEF7B9FF7990F3
:1036F0007DA97AA8FDF762FB7F980190FDF720F87D
:103700004FF03332654BCDE90201FDF741F8D4D3D8
:1037100078997998FDF776F8CFD302210020FDF74C
:1037200059FB7D989D907E98A3907F98A990022048
:1037300005904FE07DA97AA8FDF740FB0598FCF7BE
:10374000BDFF03909D9801907D9800900199FCF732
:10375000B1FD02900399FCF7E9FD04909D980146A4
:1037600003900498FCF754FD9D900598FCF7A6FF84
:103770000390A39801907E9800900199FCF79AFD20
:1037800002900399FCF7D2FD0490A39801460390A0
:103790000498FCF73DFDA3900598FCF78FFF03907C
:1037A000A99801907F9800900199FCF783FD029001
:1037B0000399FCF7BBFD0490A99801460390049877
:1037C000FCF726FDA990322000F058FC0598401C1B
:1037D000C0B2059005986428ACDB03210020FDF7FA
:1037E000F9FA0620ADF830000420ADF83200602070
:1037F000FFF77EFB0D900CA90EA8FFF725F904201A
:10380000ADF82800ADF82A004020FFF771FB0B90BF
:103810000AAA0CA90EA8FFF77EF80420ADF8200034
:10382000ADF822004020FFF763FB099008A90AA821
:10383000FEF755FF0B98049000F0F8FB0620ADF85A
:1038400018000420ADF81A006020FFF751FB079024
:1038500006AA08A90CA8FFF75EF80D98049000F0DE
:10386000E5FB0998049000F0E1FB12AA06A910A854
:10387000FFF751F80798049000F0D8FB3022AAA96E
:10388000B698FCF795FC00235A1EAAA905480068C3
:1038900000F080FE0020032306E0000033331FC049
:1038A00033331F400C000020CDE900300290034666
:1038B0004FF480720BA103900D4800F003FF00202D
:1038C0000323CDE90030029003464FF4807209A132
:1038D00003900A4800F0F6FE002000F025FC0DF5EC
:1038E000377D00BD616872735F72656164000000BE
:1038F0007D3A00086261726F00000000213A000802
:103900002DE9F0438BB080460020089009900A9082
:10391000059006900790002503210120FDF75AFA33
:10392000FEF78AFAFDF7ACF9C82000F0A7FBFEF716
:1039300041FEC82000F0A2FBFDF7B4FF00235A1E91
:103940002D492E48006800F0A9FD40F6B83000F07F
:1039500095FBFEF76FFE08A905A8FDF72FFA0A9D53
:10396000022419E008A905A8FDF728FA2046FCF76B
:10397000A5FE074629460A98FCF79CFC8146394675
:10398000FCF7D4FC06462946FCF742FC05460A2013
:1039900000F074FB601CC4B2142CE3DB2846FCF777
:1039A000CFFE06460022164BFCF7F2FE0DD2002099
:1039B0000323CDE9003002900F4B4FF4906211A128
:1039C0000390134800F07EFE0CE000200323CDE9B5
:1039D0000030029003464FF480720EA103900F480E
:1039E00000F070FE01210846FDF7F4F9002000F018
:1039F0009BFB0BB0BDE8F083880000200C0000208A
:103A000000001E40616872735F63616C69000000B2
:103A1000E52F00086261726F00000000213A000883
:103A200088B0FEF7EFF9052000F028FB04A8FDF7A9
:103A30004FFF00BF0820FEF7B5FA0A2000F01EFB7A
:103A40006846FEF7B1F904AA02A80099FEF792F9B8
:103A500004460820FEF78AFA0A2000F00FFB01A8AE
:103A6000FEF7A2F904AA02A80199FEF715F8054687
:103A7000C4EB4404C5EB4505DCE70000B0B04FF0F3
:103A8000000900200D900E900F900290039004907A
:103A900001900221FDF79EF90DA8FDF749FCC948E8
:103AA00000681790C74840681890C6488068199009
:103AB000C44800691A90C34840691B90C148806996
:103AC0001C90C048006A1D90BE48406A1E90BD48C8
:103AD000806A1F90BB48C0681490BA48C0691590AE
:103AE000B848C06A16900320ADF84800ADF84A0007
:103AF00017A813900320ADF84000ADF84200242031
:103B0000FFF7F6F9119010A912A8FEF7E8FD24229C
:103B100017A81199FCF74CFB119800F087FAFEF7F3
:103B200065FBFEF709FC01210020FDF753F900F0C9
:103B30004FFE009000BF08A905A8FDF73FF91699B0
:103B40000A98FCF7B7FB07461999FCF7B9FB05463D
:103B500015990998FCF7AEFB82461899FCF7B0FB63
:103B6000074614990898FCF7A5FB82461799FCF7BD
:103B7000A7FB80463946FCF74BFB06462946FCF777
:103B800047FB2B9016990A98FCF794FB07461C9963
:103B9000FCF796FB054615990998FCF78BFB8246C6
:103BA0001B99FCF78DFB074614990898FCF782FBDC
:103BB00082461A99FCF784FB80463946FCF728FBBD
:103BC00006462946FCF724FB28A9086116990A989D
:103BD000FCF770FB07461F99FCF772FB0546159929
:103BE0000998FCF767FB82461E99FCF769FB0746BC
:103BF00014990898FCF75EFB82461D99FCF760FB60
:103C000080463946FCF704FB06462946FCF700FBD4
:103C100028A948610D990598FCF74CFB28900E994E
:103C20000698FCF747FB29900F990798FCF742FB91
:103C30002A90002448E028AA52F8241002AA52F838
:103C40002400FCF737FB0746FCF77AFD05464FF0EA
:103C500066325D4BFCF79CFD11D328AA52F8241064
:103C600002AA52F82400FCF725FB0746FCF768FD82
:103C700005464FF06632554BFCF776FD19D201A888
:103C8000005D401C01A9085501A8005D022809DB60
:103C900028A850F8240002A941F82400002001A916
:103CA00008550FE002A850F8240028A941F8240084
:103CB00008E028A850F8240002A941F824000020B8
:103CC00001A90855601CC4B2032CB4DB4846411C52
:103CD00001F0FF0914280BDD4FF000090623012233
:103CE0000BA91C20FEF72AFC2EA90BA8FDF7B2FD9C
:103CF000002412E028A951F82400FCF721FD074612
:103D00000022334BFCF7F9FB0546FCF7FAFC00B246
:103D1000304921F81400601CC4B2032CEADB0024F3
:103D200013E02BA951F82400FCF70AFD07460022F6
:103D3000294BFCF7E2FB0546FCF7E3FC01B2254A00
:103D4000E01C22F81010601CC4B2032CE9DB002434
:103D500008E02EA830F814101E4AA01D22F81010FA
:103D6000601CC4B2032CF4DB00201A494861002413
:103D700009E018484069174931F9141008441549F9
:103D80004861601CC4B2092CF3DB012013490870A0
:103D90001348FDF7F9FC00201049087000231A466B
:103DA00020A91048006800F079FB00231A4628A9D2
:103DB0000C48006800F0EEFB0221684600F07AF93A
:103DC000B9E60000880000206666D63F6666D6BF6A
:103DD0000040AF40B800002000408F408400002029
:103DE0000846002010000020704700009CB000240E
:103DF00007E02E4850F8240001A941F82400601C77
:103E0000C4B20F2CF5DB302201A910A8FCF7D0F9C1
:103E100000235A1E10A92648006800F0BBFB0123AE
:103E2000002210A92248006800F038FB05460AE08D
:103E30000A2000F023F90123002210A91C48006881
:103E400000F02CFB0546012DF2D000BF00235A1EC6
:103E500010A91748006800F021FB302210A901A822
:103E6000FCF7A6F9FDF770F93420FDF7E7F80F48E5
:103E7000FDF7EAF80F490870052000F0FFF800246C
:103E80000BE001AA52F82410084A02EB8400FDF767
:103E900025F908490870601CC4B20F2CF1DBFDF74E
:103EA00013F9322000F0EAF8D0E7000000F800082B
:103EB0000C0000200800002008B5FDF74FFC00F0C2
:103EC00087FC009000BF4FF47A71684600F0F2F86A
:103ED00002210D48FDF728FA00240FE002210A48CC
:103EE000FDF722FA1E2000F0C9F802210648FDF76E
:103EF0001DFA782000F0C2F8601CC4B203480078B4
:103F0000A042E0DDEAE700000008014009000020CF
:103F100008B500F05DFC009000BF4FF47A71684670
:103F200000F0C8F804210D48FDF7FEF900240FE069
:103F300004210A48FDF7F8F91E2000F09FF804213B
:103F40000648FDF7F3F9782000F098F8601CC4B239
:103F500003484078A042E0DDEAE7000000080140A5
:103F60000900002000F1080141604FF0FF3181603D
:103F700000F10801C160016100210160704700216A
:103F80000161704710B502460B685C1C01D11069D5
:103F900007E002F1080000E04068446824689C42A1
:103FA000FAD944684C604C68A160886041600A613D
:103FB0001468641C146010BD426853684B60436809
:103FC0008B605368996051604160086103685B1CB5
:103FD00003607047D0E901329A60D0E901235A604A
:103FE00001694A68824201D182684A600022026106
:103FF0000A68521E0A60704710B5FCF7B9F803480A
:104000000068401C0149086010BD000068000020E5
:1040100010B505480068401E03490860084600685E
:1040200008B9FCF7ACF810BD6800002070B5064672
:104030003546B6B1103D2C4600F08EF9616809484E
:1040400000E00068026852688A42FAD3026822607F
:10405000046005496068096808440349086000F085
:10406000FDFB70BD740000206C0000204FF08050FC
:10407000014908607047000004ED00E070B5044697
:1040800000267CB100F068F9084800680519084866
:104090000068001DFFF79EFF2846FEF791FD00F027
:1040A000DDFB06460EB9FFF7E1FF70BD38000020CA
:1040B0002C0000202DE9F04104460F464FF0000887
:1040C00000F04AF92068C519154920680968884236
:1040D00009D92068A8420FD91148006885420BD938
:1040E0004FF0010808E02068A84203D80C48006897
:1040F000854201D94FF001082560B8F1000F07D0C3
:1041000008480068001DFFF765FF2846FEF758FDC8
:1041100000F0A4FB06460EB9FFF7A8FFBDE8F0814A
:10412000380000202C00002070B50446FFF764FF23
:1041300015480068844200D1002414B91248006870
:1041400000E020460546281DFFF744FFA86A18B185
:1041500005F11800FFF73EFF291D0C48FFF72CFF63
:104160000B480068401C0A4908600A480068401C67
:1041700008490860FFF74CFF0748006810B10CB908
:10418000FFF774FF70BD00002C00002070010020BC
:1041900030000020580000204400002070B538484E
:1041A0000068002866D137480068401C354908601F
:1041B0000846006808BB3449086834490968324A2F
:1041C00011603249086032490968491C304A11605F
:1041D0002D490968096809B9012100E0002121B1D0
:1041E0004FF0FF312B4A116006E027490968C96882
:1041F000CC68284A6168116000BF224800682549E0
:104200000968884235D300BF1F480068006808B9B4
:10421000012000E0002020B14FF0FF301D49086070
:1042200026E019480068C068C468656815480068D9
:10423000A84202D2174805601AE0201DFFF7CAFE07
:10424000A06A18B104F11800FFF7C4FE1249E06A31
:104250000968884202D91049E06A0860E16A01EB06
:1042600081010E4A02EB8100211DFFF7A5FECBE77D
:1042700000BF04E00A480068401C0949086070BD9E
:10428000480000203800002060000020640000206A
:10429000540000205C00002040000020D0000020DE
:1042A0004C000020012001490860704750000020A8
:1042B00070B506460C460D48016818313046FFF7C8
:1042C00061FE0A480068001DFFF784FE601C06D1ED
:1042D00006480168091D0648FFF76EFE05E005481F
:1042E000006805192846FEF76BFC70BD2C00002005
:1042F0008401002038000020034909680160034957
:104300000968416070470000540000203800002018
:104310001FB500200090019002900346802209A161
:1043200003900A4800F0CEF90446012C09D1FBF7AE
:104330001FFF01200649086000200649086000F0C0
:104340004BF81FBD49444C4500000000452D0008B6
:10435000440000203800002002480068401C014949
:1043600008607047480000201648006818B1012016
:104370001549086025E004E014480068401E134910
:1043800008601248006800EB8000114951F82000D5
:104390000028F1D00D49096801EB81010C4A02EBBC
:1043A000810041684968416000F1080142688A4221
:1043B00002D14168496841604168C968054A116095
:1043C00000BF70474800002050000020400000203F
:1043D000D00000202C00002010B50A48006840F4EE
:1043E0007F00084908600846006840F07F40086088
:1043F000FEF734FD002004490860FBF791FE002021
:1044000010BD000020ED00E06800002010B54FF066
:104410008050054908600024FBF7AAFEFFF7BEFEA6
:10442000FBF7ADFE10BD000004ED00E02DE9F0410A
:1044300005460E464FF000084DB34C20FEF758FDE0
:10444000044624B305FB06F0471C3846FEF750FD32
:1044500020602068E0B1206805FB06006060002055
:10446000A0632068A060681E216800FB0610E06061
:10447000E56326644FF0FF306064A06404F110002F
:10448000FFF770FD04F12400FFF76CFDA04602E089
:104490002046FFF7CBFD4046BDE8F0812DE9FF4106
:1044A00082B004460F461D464FF0000800BFFFF7DC
:1044B000A3FDA06B58B3E66839462046FEF7F8FB2B
:1044C0008DB9A06B401EA063206908B9012000E0EF
:1044D0000020B0B904F1100000F086F9012810D1D5
:1044E000FFF7C4FD0DE0E660606A08B9012000E056
:1044F000002030B904F1240000F076F908B1FFF78C
:10450000B5FDFFF785FD012006B0BDE8F0810498F8
:1045100018B9FFF77DFD0020F6E7B8F1000F04D1D0
:104520006846FFF7E9FE4FF00108FFF771FDFFF75E
:1045300013FFFFF761FD606C401C00D16064A06C4C
:10454000401C00D1A064FFF763FD04A9684600F099
:1045500087F8C0B92046FEF759FC70B104F1240079
:104560000499FFF7A5FE2046FEF782FC00F076F9DD
:1045700000289CD1FFF77AFD99E72046FEF778FCEA
:1045800000F06CF993E72046FEF772FC00F066F944
:104590000020B9E7FFB583B004460E461D4600274C
:1045A00000BFFFF729FDA06BE16B884217D22A46B6
:1045B00031462046FEF791FB606A08B9012000E011
:1045C000002038B904F1240000F00EF9012801D1CF
:1045D000FFF74CFDFFF71CFD012007B0F0BD05986B
:1045E00018B9FFF715FD0020F7E71FB901A8FFF77D
:1045F00083FE0127FFF70CFDFFF7AEFEFFF7FCFC83
:10460000606C401C00D16064A06C401C00D1A064B0
:10461000FFF7FEFC05A901A800F022F8C0B920466A
:10462000FEF702FC70B104F110000599FFF740FE9F
:104630002046FEF71DFC00F011F90028B1D1FFF76C
:1046400015FDAEE72046FEF713FC00F007F9A8E7DA
:104650002046FEF70DFC00F001F90020BDE7000048
:1046600070B504460D46FFF7C7FC2868401C01D111
:1046700000261FE0114920680968884206D01049C9
:1046800060680968884201D8012613E00C49606817
:104690000968081A296888420BD22868084A6168A4
:1046A0001268511A401A28602046FFF725FE00269E
:1046B00000E00126FFF7ACFC304670BD540000203E
:1046C000380000202DE9FF4F81B0804615469946FD
:1046D000DDE90E7A28461099FEF79CFA0446002C74
:1046E00056D0681E216B01EB800B2BF0070B009559
:1046F0003A462046119B0299FEF732FB4A46414654
:104700005846FEF761FC2060BAF1000F01D0CAF8EC
:104710000040FFF771FC27480068401C25490860ED
:104720002548006840B9244804600846006801280C
:104730000CD1FEF737FB09E02048006830B91E486D
:104740000068C06AB84201D81B4804601C49E06A8E
:104750000968884202D91A49E06A08601948006865
:10476000401C184908601849E06A0968884202D963
:104770001549E06A0860E16A01EB8101134A02EB26
:104780008100211DFFF718FC0126FFF741FC01E025
:104790004FF0FF36012E09D10848006830B10648B5
:1047A0000068C06AB84201D2FFF760FC304605B02D
:1047B000BDE8F08F340000202C00002044000020D1
:1047C0003C0000205800002040000020D0000020C5
:1047D00010B5FFF711FC03480468FFF719FC2046E9
:1047E00010BD00003800002070B50646F068C468AF
:1047F00004F11800FFF7EEFB13480068A0B9201D74
:10480000FFF7E8FB1149E06A0968884202D90F49BD
:10481000E06A0860E16A01EB81010D4A02EB810068
:10482000211DFFF7C9FB04E004F118010948FFF757
:10483000C3FB0949E06A0968C96A884201D30125B6
:1048400000E00025284670BD480000204000002000
:10485000D00000205C0100202C00002070B5002555
:10486000FFF7CAFB2C480068401E2B490860084629
:10487000006800284CD129480068002848D000264C
:1048800021E02748C068C46804F11800FFF7A2FBC4
:10489000201DFFF79FFB2349E06A0968884202D97F
:1048A0002049E06A0860E16A01EB81011E4A02EBDF
:1048B0008100211DFFF780FB1C49E06A0968C96A75
:1048C000884200D301261648006808B9012000E09C
:1048D00000200028D5D01648006860B106E0FFF738
:1048E0005DFC13480068401E1149086010480068CC
:1048F0000028F4D10126012E03D00E4800680128BB
:1049000005D1012500200B490860FFF7AFFB00BF70
:10491000FFF77EFB284670BD4800002034000020D1
:104920005C01002040000020D00000202C0000206E
:104930004C00002050000020F2D21C41F2D21CC1D9
:104940000000000000000000000000000000000067
:104950000000000000000000F2D21C41F2D21CC195
:104960000000000000000000000000000000000047
:104970000000000000000000F2D21C41F2D21CC175
:104980000000803F0000803F0000803F0000803F2B
:104990000000803F0000803FB84900080000002070
:1049A00088000000C0260008404A00088800002057
:1049B000B8490000D02600080000000000000000F8
:1049C00004010100000000000000000000000000E1
:1049D00000000000010203040102030406070809A5
:1049E00002040608000000000000000000000000B3
:1049F00000000000000000000000000000000000B7
:104A000000000000000000000000000000000000A6
:104A100000000000FFFFFFFF00000000000000009A
:104A2000AAAAAAAA0044000000000000000000009A
:104A30000000000000000000000000000000000076
:04000005080000ED02
:00000001FF
